:020000040800F2
:100000000028002079130008D1110008D71100083A
:10001000DD110008E3110008E911000800000000EC
:10002000000000000000000000000000EF110008C8
:10003000FB1100080000000007120008131200085E
:10004000C1130008C1130008C1130008C113000840
:10005000C1130008C1130008C1130008C113000830
:10006000C1130008C1130008C1130008C113000820
:10007000C1130008C1130008C1130008C113000810
:10008000C1130008C1130008C1130008C113000800
:10009000C1130008C1130008C1130008C1130008F0
:1000A000C1130008C1130008C1130008C1130008E0
:1000B00021120008C113000800000000C11300084D
:1000C000C11300080000000000000000C113000878
:1000D00000000000C1130008C11300080000000068
:1000E000C1130008C1130008C1130008000000007C
:1000F0000000000000000000000000000000000000
:0C01000000000000000000005FF808F1A3
:10010C0010B5054C237833B9044B13B10448AFF345
:10011C0000800123237010BD54000020000000005B
:10012C00A430000808B5034B1BB103490348AFF3D7
:10013C00008008BD0000000058000020A43000081A
:10014C0080B500AF174B1B68174A1360174B1B6821
:10015C00144A13601021164801F018FC03461A4685
:10016C00124B1A60104B1A680E4B1B689A4216D130
:10017C000C4B1A680D4B1B689A4210D10D4B1A6828
:10018C000A4B1B689A420AD0084B1B68094A136039
:10019C00064B1B68002B02D1074B01221A6000BFD3
:1001AC0080BD00BF040000200000002008000020DB
:1001BC00000801400C0000207000002080B500AF4A
:1001CC00174B1B68174A1360174B1B68144A1360B4
:1001DC000121164801F0DAFB03461A46124B1A604D
:1001EC00104B1A680E4B1B689A4216D10C4B1A68AE
:1001FC000D4B1B689A4210D10D4B1A680A4B1B68A9
:10020C009A420AD0084B1B68094A1360064B1B68BC
:10021C00002B02D1074B01221A6000BF80BD00BF2A
:10022C00240000202000002028000020000C0140A9
:10023C002C0000207400002080B500AF174B1B6809
:10024C00174A1360174B1B68144A13600221164897
:10025C0001F09CFB03461A46124B1A60104B1A68AD
:10026C000E4B1B689A4216D10C4B1A680D4B1B682F
:10027C009A4210D10D4B1A680A4B1B689A420AD04D
:10028C00084B1B68094A1360064B1B68002B02D1F4
:10029C00074B01221A6000BF80BD00BF1400002074
:1002AC001000002018000020000C01401C00002051
:1002BC007800002080B500AF174B1B68174A1360FD
:1002CC00174B1B68144A13600421164801F05EFB9F
:1002DC0003461A46124B1A60104B1A680E4B1B68D9
:1002EC009A4216D10C4B1A680D4B1B689A4210D1CE
:1002FC000D4B1A680A4B1B689A420AD0084B1B68B4
:10030C00094A1360064B1B68002B02D1074B0122D4
:10031C001A6000BF80BD00BF3400002030000020F8
:10032C0038000020000C01403C0000207C00002024
:10033C0080B500AF2A4B1B68012B0BD1294B1B68D6
:10034C00052B07D0274B1B680133264A1360244B1F
:10035C0000221A60234B1B68012B11D1224B1B6806
:10036C00224A1168224A1268184600F04BF81E4BBC
:10037C001B681E4A11681E4A1268184600F07EF966
:10038C00184B1B68022B01D100F00AFA154B1B68A5
:10039C00032B01D100F072FA124B1B68042B08D10D
:1003AC00104B01221A60134B01221A60124B0122CE
:1003BC001A60124B1B68012B10D1114B01221A60D1
:1003CC000A4B1A68084B1B681A44094B1B681344E8
:1003DC00184600F063FF094B00221A6000BF80BD75
:1003EC007000002040000020880000208C000020BD
:1003FC009000002080000020840000207C00002061
:10040C009C00002080B584B000AFF860B9607A60C1
:10041C00904B1B68013B032B00F2118101A252F897
:10042C0023F000BF41040008950500086F04000884
:10043C0003050008874B03221A600022102186480E
:10044C0001F0BBFA01224FF48D61834801F0B5FA3B
:10045C00BB684FF47A7202FB03F3184600F0EAFE15
:10046C00F4E07E4B1B68012B19D17D4B1B68012BD3
:10047C0002D17A4B00221A6000224021764801F00A
:10048C009CFA784B1B680133764A1360754B1B68DA
:10049C0040F2B632934202D1724B00221A60724B78
:1004AC001B68012B08D14FF47A7000F0DDFE6F4B06
:1004BC001B68013B6D4A13606D4B1B68012B40F0B0
:1004CC00C080684B00221A60624B04221A60002222
:1004DC000821614801F071FA01224FF48E615E48E7
:1004EC0001F06BFA7B684FF47A7202FB03F3184647
:1004FC0000F0A0FEA5E0594B1B68012B19D1584BFD
:10050C001B68012B02D1554B00221A60002240219E
:10051C00514801F052FA534B1B680133514A136096
:10052C00504B1B6840F2B632934202D14D4B002225
:10053C001A604D4B1B68012B08D14FF47A7000F0F8
:10054C0093FE4C4B1B68013B4A4A1360484B1B689B
:10055C00012B78D1434B00221A603E4B02221A60C9
:10056C00002220213C4801F028FA01224FF48B6133
:10057C00394801F022FAFB684FF47A7202FB03F35C
:10058C00184600F057FE5EE0344B1B68012B1AD165
:10059C00334B1B68012B02D1304B00221A60002216
:1005AC004FF480612C4801F008FA2E4B1B68013384
:1005BC002C4A13602B4B1B6840F2B632934202D18B
:1005CC00284B00221A60284B1B68012B08D14FF4D2
:1005DC007A7000F049FE284B1B68013B264A1360D9
:1005EC00234B1B68012B18D11E4B00221A60194B90
:1005FC0003221A6000221021174801F0DEF90122B3
:10060C004FF48D61144801F0D8F9BB684FF47A723D
:10061C0002FB03F3184600F00DFE104B1B68012B78
:10062C0013D10F4B1B68012B02D10C4B00221A600B
:10063C0000224FF48061084801F0BFF905E000BFCB
:10064C0004E000BF02E000BF00E000BF00BF1037B5
:10065C00BD4680BD80000020000C01409C000020A5
:10066C00B4000020A0000020AC0000208C00002072
:10067C00A4000020900000208800002080B584B0E9
:10068C0000AFF860B9607A60424B1B68013B032BEA
:10069C0074D801A252F823F0B506000853070008DD
:1006AC00E30600081B0700083A4B03221A600022DD
:1006BC008021394801F081F901224FF4E861364874
:1006CC0001F07BF9FB684FF47A7202FB03F31846D6
:1006DC0000F0E4FD59E0314B1B68012B50D12D4B40
:1006EC0004221A6000224FF480712B4801F065F946
:1006FC0001224FF4D861284801F05FF9BB684FF430
:10070C007A7202FB03F3184600F0C8FD38E0234B65
:10071C001B68012B36D11F4B02221A6000224FF4AA
:10072C0000711D4801F049F901224FF4B8611A48D3
:10073C0001F043F97B684FF47A7202FB03F318461D
:10074C0000F0ACFD1EE0154B1B68012B1CD1114BAE
:10075C0003221A60002280210F4801F02EF9012299
:10076C004FF4E8610C4801F028F9FB684FF47A72F9
:10077C0002FB03F3184600F091FD05E000BF04E016
:10078C0000BF02E000BF00E000BF00BF1037BD4655
:10079C0080BD00BF84000020000C0140B40000208C
:1007AC0080B500AF324B1B68012B07D1314B1B6856
:1007BC000133304A13602E4B00221A602D4B1B68FC
:1007CC00002B16D1002210212B4801F0F6F8012243
:1007DC004FF48D61284801F0F0F800224FF480713D
:1007EC00254801F0EAF801224FF4D861224801F0C3
:1007FC00E4F8204B1B68012B16D1002208211E485F
:10080C0001F0DBF801224FF48E611B4801F0D5F8A2
:10081C0000224FF40071184801F0CFF801224FF478
:10082C00B861154801F0C9F8124B1B68022B15D1A1
:10083C0000222021104801F0C0F801224FF48B61F6
:10084C000D4801F0BAF8002280210B4801F0B5F8F0
:10085C0001224FF4E861084801F0AFF8054B1B6822
:10086C00032B02D1034B00221A6000BF80BD00BFD6
:10087C007400002098000020000C014080B500AFEF
:10088C00554B1B68012B07D1534B00221A60534B5D
:10089C001B680133514A1360504B1B68002B16D157
:1008AC0001224FF48A614E4801F087F8002228217A
:1008BC004B4801F082F801224FF4A861484801F03E
:1008CC007CF800224FF42071454801F076F8434B38
:1008DC001B68012B16D101224FF48961404801F0AD
:1008EC006CF8002230213E4801F067F801224FF4E9
:1008FC00C8613B4801F061F800224FF4C0713848E0
:10090C0001F05BF8354B1B68022B16D101224FF41A
:10091C008C61334801F051F800221821304801F065
:10092C004CF801224FF498612D4801F046F8002252
:10093C004FF440712A4801F040F8284B1B68032BF8
:10094C0002D1264B00221A60264B1B68012B12D1B8
:10095C00224B1B68002B0ED1234B1B680133224A00
:10096C001360214B1B680A2B02D11F4B00221A600B
:10097C001C4B00221A601B4B1B68012B12D1174B0E
:10098C001B68012B0ED1194B1B680133174A1360DE
:10099C00164B1B680A2B02D1144B00221A60114B08
:1009AC0000221A600F4B1B68012B12D10B4B1B68DA
:1009BC00022B0ED10E4B1B6801330D4A13600C4BEE
:1009CC001B680A2B02D10A4B00221A60054B00222D
:1009DC001A6000BF80BD00BF74000020940000208E
:1009EC00000C0140780000208C00002090000020BA
:1009FC008800002080B500AF00F0DEFC00F05CF851
:100A0C0000F060F900F09AF800F0E4F81D4801F0ED
:100A1C0025FC1D4B01221A601C4B01221A601C4B39
:100A2C0003221A601B4B05221A601B4B02221A6010
:100A3C0000F0B8F90021194801F0B4FC01220021A2
:100A4C00174800F039FA01220021164800F034FA58
:100A5C0001220021144800F02FFA01220021134832
:100A6C0000F02AFA01220021114800F025FA0A2090
:100A7C0000F0FAFB00F072FA084B1B680D4A126882
:100A8C005A63F7E72C04002080000020840000202B
:100A9C008C0000208800002090000020E40300203F
:100AAC003D0300084D010008C9010008450200087B
:100ABC00C1020008A000002080B590B000AF07F183
:100ACC00180328220021184602F0DEFA3B1D0022F2
:100ADC001A605A609A60DA601A610223BB610123C2
:100AEC00BB621023FB6202237B630023BB634FF4C6
:100AFC006013FB6307F11803184600F077FF0346F9
:100B0C00002B01D000F048F90F237B600223BB605F
:100B1C000023FB604FF480633B6100237B613B1D32
:100B2C000221184601F0E2F90346002B01D000F037
:100B3C0033F900BF4037BD4680BD000080B586B09C
:100B4C0000AF07F1080300221A605A609A60DA605D
:100B5C003B4600221A605A601D4B4FF080421A60CF
:100B6C001B4B41F63F725A60194B00229A60184B8E
:100B7C004F22DA60164B00221A61154B00229A6143
:100B8C00134801F01BFB0346002B01D000F004F9C5
:100B9C004FF48053BB6007F1080319460C4801F071
:100BAC0063FE0346002B01D000F0F6F800233B60F7
:100BBC0000237B603B461946054802F0D7F90346F3
:100BCC00002B01D000F0E8F800BF1837BD4680BDFF
:100BDC002C04002080B58EB000AF07F12803002252
:100BEC001A605A609A60DA6007F1200300221A60DA
:100BFC005A603B1D00221A605A609A60DA601A61D2
:100C0C005A619A612D4B2E4A1A602C4B3F225A6026
:100C1C002A4B00229A60294B40F2E732DA60274BCC
:100C2C0000221A61254B00229A61244801F0C6FA71
:100C3C000346002B01D000F0AFF84FF48053BB6299
:100C4C0007F1280319461D4801F00EFE0346002B40
:100C5C0001D000F0A1F8194801F04CFB0346002B21
:100C6C0001D000F099F800233B6200237B6207F16E
:100C7C0020031946114802F079F90346002B01D0E4
:100C8C0000F08AF860237B604FF4FA73BB6000239A
:100C9C00FB6000237B613B1D00221946074801F0D5
:100CAC0025FD0346002B01D000F076F8034800F038
:100CBC0057FA00BF3837BD4680BD00BFE4030020A3
:100CCC000004004080B586B000AF07F10803002295
:100CDC001A605A609A60DA60244B9B69234A43F08D
:100CEC0004039361214B9B6903F004037B607B68D5
:100CFC001E4B9B691D4A43F0080393611B4B9B6978
:100D0C0003F008033B603B6800224FF4FF61184876
:100D1C0000F053FE1023BB600023FB6000233B61FB
:100D2C0007F108031946134800F0B6FC0723BB6013
:100D3C000023FB6000233B6107F1080319460C48B4
:100D4C0000F0AAFC4FF4FF63BB600123FB6000239F
:100D5C003B6102237B6107F108031946044800F04C
:100D6C009BFC00BF1837BD4680BD00BF0010024081
:100D7C00000C01400008014080B582B000AF7860E3
:100D8C0000F0A6FA00F0BEFA00F0D6FA00F024F853
:100D9C0000BF0837BD4680BD80B400AF72B600BF3F
:100DAC00FEE7000080B582B000AF0023FB7106E0C7
:100DBC00FB79184600F01EF9FB790133FB71FB79C6
:100DCC00272BF5D9034B00221A7000BF0837BD46FC
:100DDC0080BD00BFBD00002080B483B000AF0023F5
:100DEC00FB715DE0FA79334913469B0013449B0079
:100DFC000B441B68002B50D0FA792E4913469B00EC
:100E0C0013449B000B4404331B68002B32D1FA793A
:100E1C00284913469B0013449B000B440C331B784E
:100E2C00FA790133D8B2234913469B0013449B0033
:100E3C000B440C3302461A70FA791E4913469B0078
:100E4C0013449B000B4408331B68002B25D0F97905
:100E5C00FA7918480B469B000B449B00034408335B
:100E6C001968144813469B0013449B000344043335
:100E7C00196012E0FA790F4913469B0013449B004A
:100E8C000B4404331B68FA79591E0A4813469B001D
:100E9C0013449B00034404331960FB790133FB7149
:100EAC00FB79272B9ED900BF00BF0C37BD4680BCF9
:100EBC00704700BFC000002080B487B000AFF8605E
:100ECC00B9607A600023FB7502E0FB7D0133FB7592
:100EDC00FA7D204913469B0013449B000B441B686E
:100EEC00002B02D0FB7D272BEFD9FB7D282B04D1C7
:100EFC00194B04221A70282327E0FA7D1549134652
:100F0C009B0013449B000B44FA681A60FA7D11494C
:100F1C0013469B0013449B000B440433BA681A60BD
:100F2C00FA7D0C4913469B0013449B000B44083379
:100F3C007A681A60FA7D074913469B0013449B009C
:100F4C000B440C3300221A70FB7D18461C37BD462F
:100F5C0080BC7047C0000020BD00002080B582B06E
:100F6C0000AF0023FB713AE0FA79214913469B004C
:100F7C0013449B000B440C331B78002B2CD0FA79B8
:100F8C001B4913469B0013449B000B441B6898475A
:100F9C00FA79174913469B0013449B000B440C33FE
:100FAC001B78FA79013BD8B2114913469B001344C4
:100FBC009B000B440C3302461A70FA790C49134609
:100FCC009B0013449B000B4408331B68002B03D17C
:100FDC00FB79184600F00EF8FB790133FB71FB79B5
:100FEC00272BC1D900BF00BF0837BD4680BD00BF4D
:100FFC00C000002080B483B000AF786020497A68CC
:10100C0013469B0013449B000B441B68002B06D11A
:10101C001C4B03221A701C4B02221A7002E01A4B52
:10102C0001221A7016497A6813469B0013449B00E0
:10103C000B4400221A6012497A6813469B00134431
:10104C009B000B44043300221A600D497A68134646
:10105C009B0013449B000B44083300221A60084980
:10106C007A6813469B0013449B000B440C330022FC
:10107C001A70054B1B7818460C37BD4680BC704760
:10108C00C0000020BD000020BC00002080B485B052
:10109C0000AF154B9B69144A43F001039361124B4B
:1010AC009B6903F00103BB60BB680F4BDB690E4A05
:1010BC0043F08053D3610C4BDB6903F080537B60AE
:1010CC007B680A4B5B68FB60FB6823F0E063FB60AA
:1010DC00FB6843F08063FB60044AFB68536000BF0D
:1010EC001437BD4680BC7047001002400000014020
:1010FC0080B584B000AF78607B681B68B3F1804F1B
:10110C0014D1154BDB69144A43F00103D361124B24
:10111C00DB6903F00103FB60FB68002200211C204B
:10112C0000F083FA1C2000F09CFA10E07B681B682E
:10113C000A4A93420BD1084BDB69074A43F002037E
:10114C00D361054BDB6903F00203BB60BB6800BFD6
:10115C001037BD4680BD00BF0010024000040040A7
:10116C0080B588B000AF786007F1100300221A60D8
:10117C005A609A60DA607B681B680F4A934217D1F9
:10118C000E4B9B690D4A43F0040393610B4B9B6917
:10119C0003F00403FB60FB6840233B6102237B618B
:1011AC000223FB6107F110031946054800F074FA9D
:1011BC0000BF2037BD4680BD000400400010024037
:1011CC000008014080B400AFFEE780B400AFFEE73A
:1011DC0080B400AFFEE780B400AFFEE780B400AF90
:1011EC00FEE780B400AF00BFBD4680BC704780B442
:1011FC0000AF00BFBD4680BC704780B400AF00BFDD
:10120C00BD4680BC704780B500AF00F01BF900BF35
:10121C0080BD000080B500AF024801F05FF900BF4F
:10122C0080BD00BF2C04002080B400AF00BFBD46C1
:10123C0080BC704780B483B000AF7860074B00224D
:10124C001A60074B1B687A6892FBF3F3054A13602C
:10125C0000BF0C37BD4680BC704700BFA400002007
:10126C0048000020A800002080B483B000AF786054
:10127C00074B00221A60074B1B687A6892FBF3F34A
:10128C00054A136000BF0C37BD4680BC704700BFD9
:10129C00AC00002048000020B000002080B483B0D7
:1012AC0000AF7860074B00221A60074B1B687A6806
:1012BC0092FBF3F3054A136000BF0C37BD4680BCAC
:1012CC00704700BFB400002048000020B800002088
:1012DC0080B400AF094B1B68002B0BDB074B1B6862
:1012EC00013B064A1360054B1B68002B02D1044BD3
:1012FC0001221A6000BFBD4680BC7047A8000020C8
:10130C00A400002080B400AF094B1B68002B0BDB42
:10131C00074B1B68013B064A1360054B1B68002BEF
:10132C0002D1044B01221A6000BFBD4680BC70473D
:10133C00B0000020AC00002080B400AF094B1B684B
:10134C00002B0BDB074B1B68013B064A1360054B5C
:10135C001B68002B02D1044B01221A6000BFBD4652
:10136C0080BC7047B8000020B40000200C480D4928
:10137C000D4A002302E0D458C4500433C4188C42E4
:10138C00F9D30A4A0A4C002301E013600432A2424A
:10139C00FBD3FFF749FF01F053FEFFF72BFB704720
:1013AC000000002054000020E4300008540000200D
:1013BC0078040020FEE7000080B500AF084B1B68E6
:1013CC00074A43F010031360032000F023F90F20A9
:1013DC0000F008F8FFF75AFE0023184680BD00BF46
:1013EC000020024080B582B000AF7860124B1A68C2
:1013FC00124B1B7819464FF47A73B3FBF1F3B2FB23
:10140C00F3F3184600F03BF90346002B01D00123FF
:10141C000EE07B680F2B0AD8002279684FF0FF3062
:10142C0000F003F9064A7B681360002300E00123F7
:10143C0018460837BD4680BD4400002050000020EF
:10144C004C00002080B400AF054B1B781A46054BAE
:10145C001B681344034A136000BFBD4680BC704731
:10146C00500000207404002080B400AF024B1B68B5
:10147C001846BD4680BC70477404002080B485B00B
:10148C0000AF78607B6803F00703FB600C4BDB68F4
:10149C00BB60BA684FF6FF031340BB60FB681A02CF
:1014AC00BB68134343F0BF6343F40033BB60044A8F
:1014BC00BB68D36000BF1437BD4680BC704700BF0B
:1014CC0000ED00E080B400AF044BDB681B0A03F0B6
:1014DC0007031846BD4680BC704700BF00ED00E016
:1014EC0080B483B000AF0346FB7197F90730002B33
:1014FC000BDBFB7903F01F02064997F907305B09F8
:10150C00012000FA02F241F8232000BF0C37BD463F
:10151C0080BC704700E100E080B483B000AF0346AC
:10152C003960FB7197F90730002B0ADB3B68DAB2A4
:10153C000C4997F907301201D2B20B4483F80023FF
:10154C000AE03B68DAB20849FB7903F00F03043B6D
:10155C001201D2B20B441A7600BF0C37BD4680BCC8
:10156C00704700BF00E100E000ED00E080B489B0FE
:10157C0000AFF860B9607A60FB6803F00703FB61A9
:10158C00FB69C3F10703042B28BF0423BB61FB6970
:10159C000433062B02D9FB69033B00E000237B617B
:1015AC004FF0FF32BB6902FA03F3DA43BB681A400F
:1015BC007B699A404FF0FF317B6901FA03F3D94301
:1015CC007B680B40134318462437BD4680BC7047DC
:1015DC0080B582B000AF78607B68013BB3F1807F4F
:1015EC0001D301230FE00A4A7B68013B53600F21B2
:1015FC004FF0FF30FFF790FF054B00229A60044B31
:10160C0007221A60002318460837BD4680BD00BF6C
:10161C0010E000E080B582B000AF78607868FFF72A
:10162C002DFF00BF0837BD4680BD80B586B000AF2A
:10163C000346B9607A60FB7300237B61FFF742FFBE
:10164C0078617A68B9687869FFF790FF024697F974
:10165C000F3011461846FFF75FFF00BF1837BD4625
:10166C0080BD80B582B000AF0346FB7197F907309F
:10167C001846FFF735FF00BF0837BD4680BD80B563
:10168C0082B000AF78607868FFF7A2FF0346184677
:10169C000837BD4680BD000080B48BB000AF7860C9
:1016AC00396000237B6200233B6248E101227B6AA4
:1016BC0002FA03F3FB613B681B68FA691340BB61D8
:1016CC00BA69FB699A4240F037813B685B68A34A70
:1016DC0093425ED0A14A934275D8A14A934258D006
:1016EC009F4A93426FD89F4A934252D09D4A93424D
:1016FC0069D89D4A93424CD09B4A934263D89B4AEB
:10170C00934246D0994A93425DD8122B2AD8122B79
:10171C0059D801A252F823F09F1700087917000836
:10172C008B170008CD170008D3170008D317000833
:10173C00D3170008D3170008D3170008D3170008D5
:10174C00D3170008D3170008D3170008D3170008C5
:10175C00D3170008D3170008D31700088117000807
:10176C0095170008824A934213D02CE03B68DB6843
:10177C003B6229E03B68DB6804333B6224E03B6856
:10178C00DB6808333B621FE03B68DB680C333B6271
:10179C001AE03B689B68002B02D104233B6213E0E8
:1017AC003B689B68012B05D108233B627B68FA6977
:1017BC001A6109E008233B627B68FA695A6103E00D
:1017CC0000233B6200E000BFBB69FF2B01D87B68A4
:1017DC0001E07B6804337B61BB69FF2B02D87B6A19
:1017EC009B0002E07B6A083B9B003B617B691A68AB
:1017FC000F213B6901FA03F3DB431A40396A3B6959
:10180C0001FA03F31A437B691A603B685B6803F0C7
:10181C008053002B00F09080564B9B69554A43F047
:10182C0001039361534B9B6903F00103BB60BB68DD
:10183C00514A7B6A9B08023352F82330FB607B6A67
:10184C0003F003039B000F2202FA03F3DB43FA6855
:10185C001340FB607B68494A93420DD07B68484A31
:10186C00934207D07B68474A934201D1022304E09C
:10187C00032302E0012300E000237A6A02F0030252
:10188C0092009340FA681343FB603B497B6A9B08C8
:10189C000233FA6841F823203B685B6803F4803319
:1018AC00002B06D0384B1A683749BB6913430B60C1
:1018BC0006E0354B1A68BB69DB43334913400B60B8
:1018CC003B685B6803F40033002B06D02E4B5A6840
:1018DC002D49BB6913434B6006E02B4B5A68BB691F
:1018EC00DB43294913404B603B685B6803F480136E
:1018FC00002B06D0244B9A682349BB6913438B6099
:10190C0006E0214B9A68BB69DB431F4913408B608F
:10191C003B685B6803F40013002B06D01A4BDA68A3
:10192C001949BB691343CB6006E0174BDA68BB69F6
:10193C00DB4315491340CB607B6A01337B623B6808
:10194C001A687B6A22FA03F3002B7FF4AFAE00BF58
:10195C0000BF2C37BD4680BC704700BF0000321062
:10196C0000003110000022100000211000001210A5
:10197C00000011100010024000000140000801405E
:10198C00000C0140001001400004014080B485B0FF
:10199C0000AF78600B467B807B689A687B8813402D
:1019AC00002B02D00123FB7301E00023FB73FB7BB4
:1019BC0018461437BD4680BC704780B483B000AF66
:1019CC0078600B467B8013467B707B78002B03D0B2
:1019DC007A887B681A6103E07B881A047B681A6139
:1019EC0000BF0C37BD4680BC7047000080B586B088
:1019FC0000AF78607B68002B01D101236CE27B681F
:101A0C001B6803F00103002B00F08780924B5B688E
:101A1C0003F00C03042B0CD08F4B5B6803F00C030E
:101A2C00082B12D18C4B5B6803F48033B3F5803FE9
:101A3C000BD1894B1B6803F40033002B6CD07B68F3
:101A4C005B68002B68D1012346E27B685B68B3F5C9
:101A5C00803F06D1804B1B687F4A43F48033136070
:101A6C002EE07B685B68002B0CD17B4B1B687A4AA1
:101A7C0023F480331360784B1B68774A23F480235C
:101A8C0013601DE07B685B68B3F5A02F0CD1724B23
:101A9C001B68714A43F4802313606F4B1B686E4ABA
:101AAC0043F4803313600BE06B4B1B686A4A23F4DE
:101ABC0080331360684B1B68674A23F480231360E0
:101ACC007B685B68002B13D0FFF7CEFC386108E015
:101ADC00FFF7CAFC02463B69D31A642B01D90323D6
:101AEC00FAE15D4B1B6803F40033002BF0D014E0DB
:101AFC00FFF7BAFC386108E0FFF7B6FC02463B6919
:101B0C00D31A642B01D90323E6E1534B1B6803F46E
:101B1C000033002BF0D100E000BF7B681B6803F0A2
:101B2C000203002B63D04C4B5B6803F00C03002BBF
:101B3C000BD0494B5B6803F00C03082B1CD1464BB4
:101B4C005B6803F48033002B16D1434B1B6803F006
:101B5C000203002B05D07B681B69012B01D00123EC
:101B6C00BAE13D4B1B6823F0F8027B685B69DB0034
:101B7C00394913430B603AE07B681B69002B20D07A
:101B8C00364B01221A60FFF76FFC386108E0FFF753
:101B9C006BFC02463B69D31A022B01D903239BE150
:101BAC002D4B1B6803F00203002BF0D02A4B1B6853
:101BBC0023F0F8027B685B69DB00274913430B6059
:101BCC0015E0264B00221A60FFF74EFC386108E046
:101BDC00FFF74AFC02463B69D31A022B01D90323B7
:101BEC007AE11D4B1B6803F00203002BF0D17B68DC
:101BFC001B6803F00803002B3AD07B689B69002B11
:101C0C0019D0174B01221A60FFF72EFC386108E03F
:101C1C00FFF72AFC02463B69D31A022B01D9032396
:101C2C005AE10D4B5B6A03F00203002BF0D001204C
:101C3C0000F0A6FA1CE00A4B00221A60FFF714FC15
:101C4C0038610FE0FFF710FC02463B69D31A022BF8
:101C5C0008D9032340E100BF0010024000004242BB
:101C6C00800442429E4B5B6A03F00203002BE9D1D5
:101C7C007B681B6803F00403002B00F0A680002394
:101C8C00FB75974BDB6903F08053002B0DD1944B04
:101C9C00DB69934A43F08053D361914BDB6903F0CA
:101CAC008053BB60BB680123FB758E4B1B6803F430
:101CBC008073002B18D18B4B1B688A4A43F48073BA
:101CCC001360FFF7D1FB386108E0FFF7CDFB02464C
:101CDC003B69D31A642B01D90323FDE0814B1B68AC
:101CEC0003F48073002BF0D07B68DB68012B06D1EA
:101CFC007B4B1B6A7A4A43F0010313622DE07B682D
:101D0C00DB68002B0CD1764B1B6A754A23F0010360
:101D1C001362734B1B6A724A23F0040313621CE0B8
:101D2C007B68DB68052B0CD16D4B1B6A6C4A43F04E
:101D3C00040313626A4B1B6A694A43F00103136282
:101D4C000BE0674B1B6A664A23F001031362644B7A
:101D5C001B6A634A23F0040313627B68DB68002B65
:101D6C0015D0FFF781FB38610AE0FFF77DFB0246D7
:101D7C003B69D31A41F28832934201D90323ABE079
:101D8C00574B1B6A03F00203002BEED014E0FFF755
:101D9C006BFB38610AE0FFF767FB02463B69D31A1D
:101DAC0041F28832934201D9032395E04C4B1B6AD4
:101DBC0003F00203002BEED1FB7D012B05D1484B28
:101DCC00DB69474A23F08053D3617B68DB69002BC6
:101DDC0000F08180424B5B6803F00C03082B61D050
:101DEC007B68DB69022B46D13F4B00221A60FFF760
:101DFC003BFB386108E0FFF737FB02463B69D31A1F
:101E0C00022B01D9032367E0354B1B6803F00073E9
:101E1C00002BF0D17B681B6AB3F5803F08D1304BA7
:101E2C005B6823F400327B689B682D4913434B603D
:101E3C002B4B5B6823F474127B68196A7B685B6AB2
:101E4C000B43274913434B60274B01221A60FFF7C2
:101E5C000BFB386108E0FFF707FB02463B69D31A1E
:101E6C00022B01D9032337E01D4B1B6803F00073D1
:101E7C00002BF0D02FE01C4B00221A60FFF7F4FA75
:101E8C00386108E0FFF7F0FA02463B69D31A022BDF
:101E9C0001D9032320E0124B1B6803F00073002BC5
:101EAC00F0D118E07B68DB69012B01D1012313E031
:101EBC000B4B5B68FB60FB6803F480327B681B6A2E
:101ECC009A4206D1FB6803F470127B685B6A9A42F3
:101EDC0001D0012300E0002318461837BD4680BD11
:101EEC0000100240007000406000424280B584B097
:101EFC0000AF786039607B68002B01D10123D0E002
:101F0C006A4B1B6803F007033A689A4210D9674B77
:101F1C001B6823F0070265493B6813430B60634B56
:101F2C001B6803F007033A689A4201D00123B8E01A
:101F3C007B681B6803F00203002B20D07B681B68B6
:101F4C0003F00403002B05D0594B5B68584A43F44B
:101F5C00E06353607B681B6803F00803002B05D01B
:101F6C00534B5B68524A43F460535360504B5B686D
:101F7C0023F0F0027B689B684D4913434B607B68F0
:101F8C001B6803F00103002B40D07B685B68012BBE
:101F9C0007D1474B1B6803F40033002B15D10123E9
:101FAC007FE07B685B68022B07D1414B1B6803F019
:101FBC000073002B09D1012373E03D4B1B6803F028
:101FCC000203002B01D101236BE0394B5B6823F03A
:101FDC0003027B685B68364913434B60FFF744FA96
:101FEC00F8600AE0FFF740FA0246FB68D31A41F2A8
:101FFC008832934201D9032353E02D4B5B6803F0E5
:10200C000C027B685B689B009A42EBD1274B1B68E8
:10201C0003F007033A689A4210D2244B1B6823F052
:10202C00070222493B6813430B60204B1B6803F0EB
:10203C0007033A689A4201D0012332E07B681B689F
:10204C0003F00403002B08D0194B5B6823F4E06207
:10205C007B68DB68164913434B607B681B6803F095
:10206C000803002B09D0124B5B6823F460527B6889
:10207C001B69DB000E4913434B6000F021F802464C
:10208C000B4B5B681B0903F00F030A49CB5C22FA6C
:10209C0003F3094A1360094B1B681846FFF7A2F9B2
:1020AC00002318461037BD4680BD00BF00200240FB
:1020BC0000100240CC300008440000204C000020EE
:1020CC0090B48AB000AF2A4B3C1D0FCB84E80F00B4
:1020DC0040F201233B800023FB610023BB61002302
:1020EC007B6200237B6100233B62224B5B68FB61BC
:1020FC00FB6903F00C03042B02D0082B03D02DE05A
:10210C001D4B3B622DE0FB699B0C03F00F0307F1A9
:10211C002802134413F8243C7B61FB6903F48033DD
:10212C00002B13D0134B5B685B0C03F0010307F11E
:10213C002802134413F8283CBB617B690E4A02FB4E
:10214C0003F2BB69B2FBF3F37B6204E07B690B4ADD
:10215C0002FB03F37B627B6A3B6202E0064B3B6251
:10216C0000BF3B6A18462837BD4690BC704700BF7D
:10217C00BC3000080010024000127A0000093D003B
:10218C0080B485B000AF78600A4B1B680A4AA2FB8A
:10219C0003235B0A7A6802FB03F3FB6000BFFB6856
:1021AC005A1EFA60002BF9D100BF00BF1437BD4690
:1021BC0080BC704744000020D34D621080B582B0C3
:1021CC0000AF78607B68002B01D1012341E07B6874
:1021DC0093F83D30DBB2002B06D17B68002283F8EC
:1021EC003C207868FEF784FF7B68022283F83D2050
:1021FC007B681A687B6804331946104600F01CFC97
:10220C007B68012283F846207B68012283F83E20FC
:10221C007B68012283F83F207B68012283F84020F1
:10222C007B68012283F841207B68012283F84220DD
:10223C007B68012283F843207B68012283F84420C9
:10224C007B68012283F845207B68012283F83D20BE
:10225C00002318460837BD4680BD000080B485B009
:10226C0000AF78607B6893F83D30DBB2012B01D076
:10227C00012335E07B68022283F83D207B681B68D4
:10228C00DA687B681B6842F00102DA607B681B68C5
:10229C00164A934209D07B681B68B3F1804F04D077
:1022AC007B681B68124A934211D17B681B689B6840
:1022BC0003F00703FB60FB68062B10D07B681B68E0
:1022CC001A687B681B6842F001021A6007E07B68A1
:1022DC001B681A687B681B6842F001021A600023B5
:1022EC0018461437BD4680BC704700BF002C014017
:1022FC000004004080B582B000AF78607B68002B92
:10230C0001D1012341E07B6893F83D30DBB2002B17
:10231C0006D17B68002283F83C20786800F039F8FD
:10232C007B68022283F83D207B681A687B68043343
:10233C001946104600F080FB7B68012283F846208A
:10234C007B68012283F83E207B68012283F83F20C2
:10235C007B68012283F840207B68012283F84120AE
:10236C007B68012283F842207B68012283F843209A
:10237C007B68012283F844207B68012283F8452086
:10238C007B68012283F83D20002318460837BD46A0
:10239C0080BD80B483B000AF786000BF0C37BD4601
:1023AC0080BC704780B584B000AF786039603B6802
:1023BC00002B09D17B6893F83E30DBB2012B14BFA4
:1023CC0001230023DBB222E03B68042B09D17B689C
:1023DC0093F83F30DBB2012B14BF01230023DBB297
:1023EC0015E03B68082B09D17B6893F84030DBB2D1
:1023FC00012B14BF01230023DBB208E07B6893F8A8
:10240C004130DBB2012B14BF01230023DBB2002BC4
:10241C0001D0012359E03B68002B04D17B680222D8
:10242C0083F83E2013E03B68042B04D17B68022226
:10243C0083F83F200BE03B68082B04D17B68022219
:10244C0083F8402003E07B68022283F841207B68FC
:10245C001B6801223968184600F064FD7B681B6814
:10246C001C4A934207D17B681B685A6C7B681B68BB
:10247C0042F400425A647B681B68164A934209D0A6
:10248C007B681B68B3F1804F04D07B681B68124AD1
:10249C00934211D17B681B689B6803F00703FB60B8
:1024AC00FB68062B10D07B681B681A687B681B685E
:1024BC0042F001021A6007E07B681B681A687B68AF
:1024CC001B6842F001021A60002318461037BD4603
:1024DC0080BD00BF002C01400004004080B582B0DC
:1024EC0000AF78607B681B681B6903F00203022B4A
:1024FC0022D17B681B68DB6803F00203022B1BD123
:10250C007B681B686FF002021A617B6801221A77E4
:10251C007B681B689B6903F00303002B03D078686E
:10252C0000F06FFA05E0786800F062FA786800F065
:10253C0071FA7B6800221A777B681B681B6903F0B1
:10254C000403042B22D17B681B68DB6803F00403B3
:10255C00042B1BD17B681B686FF004021A617B682B
:10256C0002221A777B681B689B6903F44073002B6B
:10257C0003D0786800F045FA05E0786800F038FA86
:10258C00786800F047FA7B6800221A777B681B6832
:10259C001B6903F00803082B22D17B681B68DB68DE
:1025AC0003F00803082B1BD17B681B686FF0080233
:1025BC001A617B6804221A777B681B68DB6903F05D
:1025CC000303002B03D0786800F01BFA05E0786851
:1025DC0000F00EFA786800F01DFA7B6800221A777A
:1025EC007B681B681B6903F01003102B22D17B68DE
:1025FC001B68DB6803F01003102B1BD17B681B6876
:10260C006FF010021A617B6808221A777B681B68CE
:10261C00DB6903F44073002B03D0786800F0F1F908
:10262C0005E0786800F0E4F9786800F0F3F97B686D
:10263C0000221A777B681B681B6903F00103012BCE
:10264C000ED17B681B68DB6803F00103012B07D1FB
:10265C007B681B686FF001021A617868FEF78CFBCF
:10266C007B681B681B6903F08003802B0ED17B6891
:10267C001B68DB6803F08003802B07D17B681B6829
:10268C006FF080021A61786800F0D1FC7B681B68DF
:10269C001B6903F04003402B0ED17B681B68DB6881
:1026AC0003F04003402B07D17B681B686FF040029E
:1026BC001A61786800F0B7F97B681B681B6903F036
:1026CC002003202B0ED17B681B68DB6803F02003F2
:1026DC00202B07D17B681B686FF020021A61786889
:1026EC0000F09CFC00BF0837BD4680BD80B584B0AF
:1026FC0000AFF860B9607A60FB6893F83C30012B4E
:10270C0001D10223ACE0FB68012283F83C207B68FA
:10271C000C2B00F29F8001A252F823F05D270008D9
:10272C006128000861280008612800089D2700081E
:10273C00612800086128000861280008DF270008CC
:10274C006128000861280008612800081F2800087B
:10275C00FB681B68B968184600F0C6F9FB681B6873
:10276C009A69FB681B6842F008029A61FB681B6857
:10277C009A69FB681B6822F004029A61FB681B686B
:10278C009969BB681A69FB681B680A439A6162E025
:10279C00FB681B68B968184600F00CFAFB681B68EC
:1027AC009A69FB681B6842F400629A61FB681B68BB
:1027BC009A69FB681B6822F480629A61FB681B684B
:1027CC009969BB681B691A02FB681B680A439A610A
:1027DC0041E0FB681B68B968184600F055FAFB68C5
:1027EC001B68DA69FB681B6842F00802DA61FB6857
:1027FC001B68DA69FB681B6822F00402DA61FB686B
:10280C001B68D969BB681A69FB681B680A43DA61E3
:10281C0021E0FB681B68B968184600F09FFAFB685A
:10282C001B68DA69FB681B6842F40062DA61FB68BA
:10283C001B68DA69FB681B6822F48062DA61FB684A
:10284C001B68D969BB681B691A02FB681B680A43C1
:10285C00DA6100E000BFFB68002283F83C20002313
:10286C0018461037BD4680BD80B584B000AF786087
:10287C0039607B6893F83C30012B01D10223B3E023
:10288C007B68012283F83C207B68022283F83D2080
:10289C007B681B689B68FB60FB6823F07703FB601D
:1028AC00FB6823F47F43FB607B681B68FA689A60C3
:1028BC003B681B68B3F5005F3ED0B3F5005F00F2D8
:1028CC008780B3F5805F00F08580B3F5805F7FD89B
:1028DC00702B1AD0702B7BD8602B50D0602B77D8F4
:1028EC00502B3CD0502B73D8402B58D0402B6FD84A
:1028FC00302B64D0302B6BD8202B60D0202B67D89A
:10290C00002B5CD0102B5AD062E07B6818683B68B7
:10291C0099683B685A683B68DB6800F0E4FA7B68AE
:10292C001B689B68FB60FB6843F07703FB607B686C
:10293C001B68FA689A604EE07B6818683B68996877
:10294C003B685A683B68DB6800F0CDFA7B681B6813
:10295C009A687B681B6842F480429A603BE07B6813
:10296C0018683B6859683B68DB681A4600F044FA03
:10297C007B681B685021184600F09BFA2BE07B68A3
:10298C0018683B6859683B68DB681A4600F062FAC5
:10299C007B681B686021184600F08BFA1BE07B6893
:1029AC0018683B6859683B68DB681A4600F024FAE3
:1029BC007B681B684021184600F07BFA0BE07B68B3
:1029CC001A683B681B681946104600F072FA02E060
:1029DC0000BF00E000BF7B68012283F83D207B68CC
:1029EC00002283F83C20002318461037BD4680BDDA
:1029FC0080B483B000AF786000BF0C37BD4680BC9C
:102A0C00704780B483B000AF786000BF0C37BD4610
:102A1C0080BC704780B483B000AF786000BF0C37C7
:102A2C00BD4680BC704780B483B000AF786000BFF7
:102A3C000C37BD4680BC704780B485B000AF786061
:102A4C0039607B681B68FB607B68254A934207D022
:102A5C007B68B3F1804F03D07B68224A934208D144
:102A6C00FB6823F07003FB603B685B68FA681343F8
:102A7C00FB607B681A4A934207D07B68B3F1804FA6
:102A8C0003D07B68174A934208D1FB6823F4407348
:102A9C00FB603B68DB68FA681343FB60FB6823F060
:102AAC0080023B685B691343FB607B68FA681A60C1
:102ABC003B689A687B68DA623B681A687B689A6242
:102ACC007B68074A934203D13B681A697B681A6397
:102ADC007B6801225A6100BF1437BD4680BC704729
:102AEC00002C01400004004080B487B000AF786037
:102AFC0039607B681B6A23F001027B681A627B6871
:102B0C001B6A7B617B685B683B617B689B69FB60D4
:102B1C00FB6823F07003FB60FB6823F00303FB608E
:102B2C003B681B68FA681343FB607B6923F0020364
:102B3C007B613B689B687A6913437B617B681C4AA9
:102B4C0093420CD17B6923F008037B613B68DB6803
:102B5C007A6913437B617B6923F004037B617B6897
:102B6C00134A934211D13B6923F480733B613B6957
:102B7C0023F400733B613B685B693A6913433B6127
:102B8C003B689B693A6913433B617B683A695A60BD
:102B9C007B68FA689A613B685A687B685A637B6801
:102BAC007A691A6200BF1C37BD4680BC704700BFF3
:102BBC00002C014080B487B000AF786039607B682E
:102BCC001B6A23F010027B681A627B681B6A7B61AC
:102BDC007B685B683B617B689B69FB60FB6823F4EB
:102BEC00E043FB60FB6823F44073FB603B681B68AD
:102BFC001B02FA681343FB607B6923F020037B61A3
:102C0C003B689B681B017A6913437B617B681D4A97
:102C1C0093420DD17B6923F080037B613B68DB68B9
:102C2C001B017A6913437B617B6923F040037B6151
:102C3C007B68144A934213D13B6923F480633B6154
:102C4C003B6923F400633B613B685B699B003A6919
:102C5C0013433B613B689B699B003A6913433B619F
:102C6C007B683A695A607B68FA689A613B685A6873
:102C7C007B689A637B687A691A6200BF1C37BD4611
:102C8C0080BC7047002C014080B487B000AF7860E6
:102C9C0039607B681B6A23F480727B681A627B68DC
:102CAC001B6A7B617B685B683B617B68DB69FB60F3
:102CBC00FB6823F07003FB60FB6823F00303FB60ED
:102CCC003B681B68FA681343FB607B6923F4007351
:102CDC007B613B689B681B027A6913437B617B6851
:102CEC001D4A93420DD17B6923F400637B613B68E1
:102CFC00DB681B027A6913437B617B6923F4806375
:102D0C007B617B68144A934213D13B6923F4805353
:102D1C003B613B6923F400533B613B685B691B01DE
:102D2C003A6913433B613B689B691B013A69134346
:102D3C003B617B683A695A607B68FA68DA613B6888
:102D4C005A687B68DA637B687A691A6200BF1C3741
:102D5C00BD4680BC704700BF002C014080B487B0DA
:102D6C0000AF786039607B681B6A23F480527B6803
:102D7C001A627B681B6A3B617B685B687B617B6862
:102D8C00DB69FB60FB6823F4E043FB60FB6823F426
:102D9C004073FB603B681B681B02FA681343FB60C3
:102DAC003B6923F400533B613B689B681B033A6906
:102DBC0013433B617B680F4A934209D17B6923F42F
:102DCC0080437B613B685B699B017A6913437B6140
:102DDC007B687A695A607B68FA68DA613B685A6882
:102DEC007B681A647B683A691A6200BF1C37BD465F
:102DFC0080BC7047002C014080B487B000AFF860F5
:102E0C00B9607A60FB681B6A7B61FB681B6A23F004
:102E1C000102FB681A62FB689B693B613B6923F00A
:102E2C00F0033B617B681B013A6913433B617B698F
:102E3C0023F00A037B617A69BB6813437B61FB68EF
:102E4C003A699A61FB687A691A6200BF1C37BD4601
:102E5C0080BC704780B487B000AFF860B9607A600E
:102E6C00FB681B6A23F01002FB681A62FB689B6903
:102E7C007B61FB681B6A3B617B6923F470437B615C
:102E8C007B681B037A6913437B613B6923F0A003C6
:102E9C003B61BB681B013A6913433B61FB687A6970
:102EAC009A61FB683A691A6200BF1C37BD4680BC48
:102EBC00704780B485B000AF786039607B689B68E0
:102ECC00FB60FB6823F07003FB603A68FB681343FC
:102EDC0043F00703FB607B68FA689A6000BF143705
:102EEC00BD4680BC704780B487B000AFF860B96055
:102EFC007A603B60FB689B687B617B6923F47F4352
:102F0C007B613B681A027B681A43BB6813437A697E
:102F1C0013437B61FB687A699A6000BF1C37BD461E
:102F2C0080BC704780B487B000AFF860B9607A603D
:102F3C00BB6803F01F03012202FA03F37B61FB68F9
:102F4C001A6A7B69DB431A40FB681A62FB681A6ACF
:102F5C00BB6803F01F03796801FA03F31A43FB689B
:102F6C001A6200BF1C37BD4680BC704780B485B068
:102F7C0000AF786039607B6893F83C30012B01D14D
:102F8C00022341E07B68012283F83C207B6802220B
:102F9C0083F83D207B681B685B68FB607B681B6863
:102FAC009B68BB60FB6823F07003FB603B681B688D
:102FBC00FA681343FB607B681B68FA685A607B688D
:102FCC001B68144A934209D07B681B68B3F1804F8D
:102FDC0004D07B681B68104A93420CD1BB6823F069
:102FEC008003BB603B685B68BA681343BB607B685B
:102FFC001B68BA689A607B68012283F83D207B6865
:10300C00002283F83C20002318461437BD4680BCB0
:10301C00704700BF002C01400004004080B483B016
:10302C0000AF786000BF0C37BD4680BC704780B4E1
:10303C0083B000AF786000BF0C37BD4680BC7047D2
:10304C0070B500260C4D0D4C641BA410A64209D182
:10305C0000F022F800260A4D0A4C641BA410A6426C
:10306C0005D170BD55F8043B98470136EEE755F88D
:10307C00043B98470136F2E7DC300008DC300008EE
:10308C00DC300008E030000803460244934200D1D3
:10309C00704703F8011BF9E7F8B500BFF8BC08BC92
:1030AC009E467047F8B500BFF8BC08BC9E467047FA
:1030BC0002030405060708090A0B0C0D0E0F10106D
:1030CC0000000000000000000102030406070809CC
:0430DC0031010008B6
:0430E0000D010008D6
:1030E40001000000010000000100000001000000D8
:1030F40001000000010000000100000001000000C8
:1031040001000000010000000100000001000000B7
:1031140001000000010000000100000001000000A7
:10312400010000000024F4000A0000001000000068
:043134000100000096
:040000050800137963
:00000001FF
