:020000040800F2
:100000000050002085140008C9120008CF12000813
:10001000D5120008DB120008E11200080000000001
:10002000000000000000000000000000E7120008CF
:10003000F312000800000000FF1200080B13000874
:10004000CD140008CD140008CD140008CD1400080C
:10005000CD140008CD140008CD140008CD140008FC
:10006000CD140008CD140008CD140008CD140008EC
:10007000CD140008CD140008CD140008CD140008DC
:10008000CD140008CD140008CD140008CD140008CC
:10009000CD140008CD140008CD140008CD140008BC
:1000A000CD140008CD140008CD140008CD140008AC
:1000B00019130008CD140008CD140008CD14000851
:1000C000CD140008CD140008CD140008CD1400088C
:1000D000CD140008CD1400082D130008CD1400081D
:1000E000CD140008CD140008CD1400080000000055
:1000F0000000000000000000000000000000000000
:0C01000000000000000000005FF808F1A3
:10010C0010B5054C237833B9044B13B10448AFF345
:10011C0000800123237010BD54000020000000005B
:10012C00A83B000808B5034B1BB103490348AFF3C8
:10013C00008008BD0000000058000020A83B00080B
:10014C0080B500AF174B1B68174A1360174B1B6821
:10015C00144A13600221164801F058FD03461A4652
:10016C00124B1A60104B1A680E4B1B689A4216D130
:10017C000C4B1A680D4B1B689A4210D10D4B1A6828
:10018C000A4B1B689A420AD0084B1B68094A136039
:10019C00064B1B68002B02D1074B01221A6000BFD3
:1001AC0080BD00BF040000200000002008000020DB
:1001BC00000801400C0000207000002080B500AF4A
:1001CC00174B1B68174A1360174B1B68144A1360B4
:1001DC001021164801F01AFD03461A46124B1A60FC
:1001EC00104B1A680E4B1B689A4216D10C4B1A68AE
:1001FC000D4B1B689A4210D10D4B1A680A4B1B68A9
:10020C009A420AD0084B1B68094A1360064B1B68BC
:10021C00002B02D1074B01221A6000BF80BD00BF2A
:10022C0024000020200000202800002000080140AD
:10023C002C0000207400002080B500AF174B1B6809
:10024C00174A1360174B1B68144A13600121164898
:10025C0001F0DCFC03461A46124B1A60104B1A686C
:10026C000E4B1B689A4216D10C4B1A680D4B1B682F
:10027C009A4210D10D4B1A680A4B1B689A420AD04D
:10028C00084B1B68094A1360064B1B68002B02D1F4
:10029C00074B01221A6000BF80BD00BF1400002074
:1002AC001000002018000020000C01401C00002051
:1002BC007800002080B500AF174B1B68174A1360FD
:1002CC00174B1B68144A13600121164801F09EFC61
:1002DC0003461A46124B1A60104B1A680E4B1B68D9
:1002EC009A4216D10C4B1A680D4B1B689A4210D1CE
:1002FC000D4B1A680A4B1B689A420AD0084B1B68B4
:10030C00094A1360064B1B68002B02D1074B0122D4
:10031C001A6000BF80BD00BF3400002030000020F8
:10032C0038000020000801403C0000207C00002028
:10033C0080B500AF264B1B68012B0AD1254B002240
:10034C001A60254B1B680133234A1360204B002293
:10035C001A60214B1B68012B11D1204B1B68204AC2
:10036C001168204A1268184600F044F81B4B1B68B1
:10037C001B4A11681B4A1268184600F08BF9164B81
:10038C001B68022B01D100F011FA134B1B68032BD5
:10039C0001D100F075FA104B1B68042B08D10E4BE1
:1003AC0001221A60104B01221A60104B01221A60B4
:1003BC000F4B1B68012B09D1064B01221A6042F22C
:1003CC00107000F0D7FF0A4B00221A6000BF80BDEE
:1003DC00700000209C0000204000002088000020BD
:1003EC008C00002090000020800000208400002061
:1003FC007C00002080B584B000AFF860B9607A60F2
:10040C009C4B1B68013B032B00F2298101A252F883
:10041C0023F000BF310400089F0500085F040008AA
:10042C00FF040008934B03221A6000224FF48061F2
:10043C00914801F002FC01220821904801F0FDFBDB
:10044C00BB684FF47A7202FB03F3184600F078FF96
:10045C000CE18B4B1B68012B20D18A4B1B68012BA9
:10046C0002D1874B00221A6001224FF4807182481E
:10047C0001F0E3FB00224FF48061804801F0DDFBCA
:10048C00814B1B680A33804A13607F4B1B6840F218
:10049C00B632934202D17C4B00221A607B4B1B6814
:1004AC00012B40F0DE80784B00221A60714B042245
:1004BC001A6001224FF480616F4801F0BEFB0122EB
:1004CC0008216E4801F0B9FB00224FF480716A4894
:1004DC0001F0B3FB00224FF48061684801F0ADFBE2
:1004EC007B684FF47A7202FB03F3184600F028FF86
:1004FC00B7E0634B1B68012B20D1624B1B68012BAF
:10050C0002D15F4B00221A6001224FF480715A48CD
:10051C0001F093FB00224FF48061584801F08DFBF1
:10052C00594B1B680A33584A1360574B1B6840F2EF
:10053C00B632934202D1544B00221A60534B1B68C3
:10054C00012B40F09080504B00221A60494B022244
:10055C001A6000224FF48071474801F06EFB0022B4
:10056C004FF48061454801F068FB01224FF4806133
:10057C00414801F062FB00220821404801F05DFB7C
:10058C00FB684FF47A7202FB03F3184600F0D8FEB6
:10059C0069E03B4B1B68012B20D13A4B1B68012BAC
:1005AC0002D1374B00221A6000224FF4807132487E
:1005BC0001F043FB01224FF48061304801F03DFB18
:1005CC00314B1B680A33304A13602F4B1B6840F2C7
:1005DC00B632934202D12C4B00221A602B4B1B6873
:1005EC00012B24D1284B00221A60224B03221A60C3
:1005FC0000224FF48071204801F01FFB00224FF4C1
:10060C0080611E4801F019FB00224FF480611A48EA
:10061C0001F013FB01220821184801F00EFBBB6806
:10062C004FF47A7202FB03F3184600F089FE144B68
:10063C001B68012B19D1164B1B68012B02D1104BD7
:10064C0000221A6000224FF480710B4801F0F5FA79
:10065C0001224FF48061094801F0EFFA05E000BF78
:10066C0004E000BF02E000BF00E000BF00BF103795
:10067C00BD4680BD8000002000080140000C0140F8
:10068C009C000020AC000020A0000020A400002052
:10069C00B400002080B584B000AFF860B9607A6017
:1006AC003F4B1B68013B032B6ED801A252F823F081
:1006BC00CD06000861070008F90600082D070008A0
:1006CC00374B03221A6001222021364801F0B5FA7B
:1006DC0000221021334801F0B0FAFB684FF47A7213
:1006EC0002FB03F3184600F05FFE54E02E4B1B6830
:1006FC00012B4BD12A4B04221A60002220212948BD
:10070C0001F09BFA01221021264801F096FABB68F1
:10071C004FF47A7202FB03F3184600F045FE35E005
:10072C00214B1B68012B33D11D4B02221A60012275
:10073C0020211C4801F081FA01221021194801F0F6
:10074C007CFA7B684FF47A7202FB03F3184600F0D4
:10075C002BFE1DE0144B1B68012B1BD1104B0322ED
:10076C001A60012220210F4801F067FA00221021A3
:10077C000C4801F062FAFB684FF47A7202FB03F347
:10078C00184600F011FE05E000BF04E000BF02E0D7
:10079C0000BF00E000BF00BF1037BD4680BD00BFEA
:1007AC0084000020000C0140B400002080B500AF94
:1007BC002F4B1B68012B07D12E4B1B6801332D4A85
:1007CC0013602B4B00221A602A4B1B68002B14D190
:1007DC0000222021284801F030FA0122102126485D
:1007EC0001F02BFA00224FF48061244801F025FA25
:1007FC0001220821204801F020FA1E4B1B68012B16
:10080C0014D1012220211C4801F017FA01221021D9
:10081C00194801F012FA01224FF48061174801F0D7
:10082C000CFA01220821144801F007FA114B1B683D
:10083C00022B14D1012220210F4801F0FEF90022D5
:10084C0010210D4801F0F9F901224FF480610B4899
:10085C0001F0F3F900220821074801F0EEF9054BED
:10086C001B68032B02D1034B00221A6000BF80BD12
:10087C007400002098000020000C0140000801408A
:10088C0080B500AF524B1B68012B07D1504B002297
:10089C001A60504B1B6801334E4A13604D4B1B685A
:1008AC00002B14D1002220214B4801F0C6F9012263
:1008BC001021494801F0C1F900224FF480614748EA
:1008CC0001F0BBF901220821434801F0B6F9414B74
:1008DC001B68012B14D1012220213F4801F0ADF9F6
:1008EC00012210213C4801F0A8F901224FF480614B
:1008FC003A4801F0A2F901220821374801F09DF98C
:10090C00344B1B68022B14D101222021324801F0F8
:10091C0094F900221021304801F08FF901224FF494
:10092C0080612E4801F089F9002208212A4801F043
:10093C0084F9284B1B68032B02D1264B00221A602A
:10094C00274B1B68012B12D1224B1B68002B0ED19D
:10095C00244B1B680133234A1360224B1B680A2B60
:10096C0002D1204B00221A601D4B00221A601C4B36
:10097C001B68012B12D1174B1B68012B0ED11A4B84
:10098C001B680133184A1360174B1B680A2B02D1E2
:10099C00154B00221A60124B00221A60104B1B6878
:1009AC00012B12D10B4B1B68022B0ED10F4B1B686A
:1009BC0001330E4A13600D4B1B680A2B02D10B4BF3
:1009CC0000221A60064B00221A6000BF80BD00BFD7
:1009DC007400002094000020000C0140000801402D
:1009EC00780000208C00002090000020880000205F
:1009FC0080B500AF00F066FD00F05EF800F06EF917
:100A0C0000F09CF800F040F900F0E4F81D4801F00B
:100A1C0097FD1D4B01221A601C4B01221A601C4BC6
:100A2C0003221A601B4B05221A601B4B02221A6010
:100A3C0000F0D8F90021194801F024FE0122002110
:100A4C00174800F059FA01220021164800F054FA18
:100A5C0001220021144800F04FFA01220021134812
:100A6C0000F04AFA01220021114800F045FA0A2050
:100A7C0000F080FC00F092FA084B1B680D4A1268DB
:100A8C005A63F7E72C04002080000020840000202B
:100A9C008C0000208800002090000020E40300203F
:100AAC003D0300084D010008C9010008450200087B
:100ABC00C1020008A000002080B590B000AF07F183
:100ACC00180328220021184603F060F83B1D002271
:100ADC001A605A609A60DA601A610223BB610123C2
:100AEC00BB621023FB6202237B630023BB634FF4C6
:100AFC006013FB6307F11803184601F0B7F80346BF
:100B0C00002B01D000F068F90F237B600223BB603F
:100B1C000023FB604FF480633B6100237B613B1D32
:100B2C000221184601F022FB0346002B01D000F0F5
:100B3C0053F900BF4037BD4680BD000080B586B07C
:100B4C0000AF07F1080300221A605A609A60DA605D
:100B5C003B4600221A605A601D4B4FF080421A60CF
:100B6C001B4B41F63F725A60194B00229A60184B8E
:100B7C004F22DA60164B00221A61154B00229A6143
:100B8C00134801F08DFC0346002B01D000F024F932
:100B9C004FF48053BB6007F1080319460C4801F071
:100BAC00D9FF0346002B01D000F016F900233B605F
:100BBC0000237B603B461946054802F057FB034671
:100BCC00002B01D000F008F900BF1837BD4680BDDE
:100BDC002C04002080B58AB000AF07F1200300225E
:100BEC001A605A603B1D00221A605A609A60DA60E3
:100BFC001A615A619A61224B224A1A60204B3F2299
:100C0C005A601F4B00229A601D4B40F2E732DA60AB
:100C1C001B4B00221A611A4B00229A61184801F0F2
:100C2C00E1FC0346002B01D000F0D6F800233B6218
:100C3C0000237B6207F120031946114802F016FBD2
:100C4C000346002B01D000F0C7F860237B60002323
:100C5C00BB600023FB6000237B613B1D0022194617
:100C6C00074801F0B9FE0346002B01D000F0B4F8A0
:100C7C00034800F09FFA00BF2837BD4680BD00BF77
:100C8C00E40300200004004080B500AF114B124A71
:100C9C001A60104B4FF4E1325A600E4B00229A60EE
:100CAC000C4B0022DA600B4B00221A61094B0C2210
:100CBC005A61084B00229A61064B0022DA61054802
:100CCC0002F044FB0346002B01D000F085F800BF76
:100CDC0080BD00BF740400200044004080B586B085
:100CEC0000AF07F1080300221A605A609A60DA60BC
:100CFC002E4B9B692D4A43F0040393612B4B9B694C
:100D0C0003F004037B607B68284B9B69274A43F004
:100D1C0008039361254B9B6903F008033B603B6818
:100D2C0000224FF48761224800F087FF00224FF425
:100D3C00A061204800F081FF1323BB600023FB60FF
:100D4C0001233B6107F1080319461A4800F0DAFD4C
:100D5C000123BB600023FB6001233B6107F1080307
:100D6C001946134800F0CEFD4FF48763BB60012396
:100D7C00FB6000233B6102237B6107F108031946EA
:100D8C000B4800F0BFFD4FF4A063BB600123FB6078
:100D9C0000233B6102237B6107F1080319460548D8
:100DAC0000F0B0FD00BF1837BD4680BD00100240FA
:100DBC00000C01400008014080B582B000AF7860A3
:100DCC0000F00CFB00F024FB00F03CFB00F024F8DE
:100DDC0000BF0837BD4680BD80B400AF72B600BFFF
:100DEC00FEE7000080B582B000AF0023FB7106E087
:100DFC00FB79184600F01EF9FB790133FB71FB7986
:100E0C00272BF5D9034B00221A7000BF0837BD46BB
:100E1C0080BD00BFBD00002080B483B000AF0023B4
:100E2C00FB715DE0FA79334913469B0013449B0038
:100E3C000B441B68002B50D0FA792E4913469B00AB
:100E4C0013449B000B4404331B68002B32D1FA79FA
:100E5C00284913469B0013449B000B440C331B780E
:100E6C00FA790133D8B2234913469B0013449B00F3
:100E7C000B440C3302461A70FA791E4913469B0038
:100E8C0013449B000B4408331B68002B25D0F979C5
:100E9C00FA7918480B469B000B449B00034408331B
:100EAC001968144813469B0013449B0003440433F5
:100EBC00196012E0FA790F4913469B0013449B000A
:100ECC000B4404331B68FA79591E0A4813469B00DD
:100EDC0013449B00034404331960FB790133FB7109
:100EEC00FB79272B9ED900BF00BF0C37BD4680BCB9
:100EFC00704700BFC000002080B487B000AFF8601E
:100F0C00B9607A600023FB7502E0FB7D0133FB7551
:100F1C00FA7D204913469B0013449B000B441B682D
:100F2C00002B02D0FB7D272BEFD9FB7D282B04D186
:100F3C00194B04221A70282327E0FA7D1549134611
:100F4C009B0013449B000B44FA681A60FA7D11490C
:100F5C0013469B0013449B000B440433BA681A607D
:100F6C00FA7D0C4913469B0013449B000B44083339
:100F7C007A681A60FA7D074913469B0013449B005C
:100F8C000B440C3300221A70FB7D18461C37BD46EF
:100F9C0080BC7047C0000020BD00002080B582B02E
:100FAC0000AF0023FB713AE0FA79214913469B000C
:100FBC0013449B000B440C331B78002B2CD0FA7978
:100FCC001B4913469B0013449B000B441B6898471A
:100FDC00FA79174913469B0013449B000B440C33BE
:100FEC001B78FA79013BD8B2114913469B00134484
:100FFC009B000B440C3302461A70FA790C491346C9
:10100C009B0013449B000B4408331B68002B03D13B
:10101C00FB79184600F00EF8FB790133FB71FB7974
:10102C00272BC1D900BF00BF0837BD4680BD00BF0C
:10103C00C000002080B483B000AF786020497A688B
:10104C0013469B0013449B000B441B68002B06D1DA
:10105C001C4B03221A701C4B02221A7002E01A4B12
:10106C0001221A7016497A6813469B0013449B00A0
:10107C000B4400221A6012497A6813469B001344F1
:10108C009B000B44043300221A600D497A68134606
:10109C009B0013449B000B44083300221A60084940
:1010AC007A6813469B0013449B000B440C330022BC
:1010BC001A70054B1B7818460C37BD4680BC704720
:1010CC00C0000020BD000020BC00002080B485B012
:1010DC0000AF154B9B69144A43F001039361124B0B
:1010EC009B6903F00103BB60BB680F4BDB690E4AC5
:1010FC0043F08053D3610C4BDB6903F080537B606E
:10110C007B680A4B5B68FB60FB6823F0E063FB6069
:10111C00FB6843F00073FB60044AFB68536000BF3C
:10112C001437BD4680BC70470010024000000140DF
:10113C0080B584B000AF78607B681B68B3F1804FDA
:10114C0013D10C4BDB690B4A43F00103D361094B00
:10115C00DB6903F00103FB60FB68002200211C200B
:10116C0000F0E9FA1C2000F002FB00BF1037BD466E
:10117C0080BD00BF0010024080B485B000AF786025
:10118C007B681B68094A93420BD1094BDB69084AFF
:10119C0043F00203D361064BDB6903F00203FB60EF
:1011AC00FB6800BF1437BD4680BC7047000400408C
:1011BC000010024080B588B000AF786007F11003D2
:1011CC0000221A605A609A60DA607B681B680F4ACA
:1011DC00934217D10E4B9B690D4A43F00403936164
:1011EC000B4B9B6903F00403FB60FB6840233B61E2
:1011FC0002237B610223FB6107F1100319460548AA
:10120C0000F080FB00BF2037BD4680BD00040040CD
:10121C00001002400008014080B588B000AF786033
:10122C0007F1100300221A605A609A60DA607B683A
:10123C001B681F4A934237D11E4BDB691D4A43F48E
:10124C000033D3611B4BDB6903F40033FB60FB6899
:10125C00184B9B69174A43F004039361154B9B6928
:10126C0003F00403BB60BB6804233B6102237B6176
:10127C000323FB6107F1100319460F4800F042FBF2
:10128C0008233B6100237B610023BB6107F1100342
:10129C001946094800F036FB00220021262000F0F8
:1012AC004AFA262000F063FA00BF2037BD4680BD05
:1012BC0000440040001002400008014080B400AF20
:1012CC00FEE780B400AFFEE780B400AFFEE780B469
:1012DC0000AFFEE780B400AFFEE780B400AF00BF04
:1012EC00BD4680BC704780B400AF00BFBD4680BC1B
:1012FC00704780B400AF00BFBD4680BC704780B55E
:10130C0000AF00F025F900BF80BD000080B500AF34
:10131C00024801F059FA00BF80BD00BF2C04002028
:10132C0080B500AF024802F05FF800BF80BD00BF7F
:10133C007404002080B400AF00BFBD4680BC704771
:10134C0080B483B000AF7860074B00221A60074B63
:10135C001B687A6892FBF3F3054A136000BF0C37E5
:10136C00BD4680BC704700BFA40000204800002090
:10137C00A800002080B483B000AF7860074B002237
:10138C001A60074B1B687A6892FBF3F3054A1360EB
:10139C0000BF0C37BD4680BC704700BFAC000020BE
:1013AC0048000020B000002080B483B000AF78600B
:1013BC00074B00221A60074B1B687A6892FBF3F309
:1013CC00054A136000BF0C37BD4680BC704700BF98
:1013DC00B400002048000020B800002080B400AF0A
:1013EC00094B1B68002B0BDB074B1B68013B064AA8
:1013FC001360054B1B68002B02D1044B01221A60B1
:10140C0000BFBD4680BC7047A8000020A40000208F
:10141C0080B400AF094B1B68002B0BDB074B1B6820
:10142C00013B064A1360054B1B68002B02D1044B91
:10143C0001221A6000BFBD4680BC7047B00000207E
:10144C00AC00002080B400AF094B1B68002B0BDBF9
:10145C00074B1B68013B064A1360054B1B68002BAE
:10146C0002D1044B01221A6000BFBD4680BC7047FC
:10147C00B8000020B40000200C480D490D4A002390
:10148C0002E0D458C4500433C4188C42F9D30A4A2D
:10149C000A4C002301E013600432A242FBD3FFF795
:1014AC0049FF02F04FFBFFF7A3FA70470000002042
:1014BC0054000020F03B000854000020BC04002025
:1014CC00FEE7000080B500AF084B1B68074A43F0ED
:1014DC0010031360032000F023F90F2000F008F82C
:1014EC00FFF7F4FD0023184680BD00BF002002402A
:1014FC0080B582B000AF7860124B1A68124B1B7823
:10150C0019464FF47A73B3FBF1F3B2FBF3F31846BD
:10151C0000F03BF90346002B01D001230EE07B6861
:10152C000F2B0AD8002279684FF0FF3000F003F936
:10153C00064A7B681360002300E001231846083735
:10154C00BD4680BD44000020500000204C0000200F
:10155C0080B400AF054B1B781A46054B1B6813442F
:10156C00034A136000BFBD4680BC7047500000208A
:10157C00B804002080B400AF024B1B681846BD466F
:10158C0080BC7047B804002080B485B000AF786090
:10159C007B6803F00703FB600C4BDB68BB60BA682D
:1015AC004FF6FF031340BB60FB681A02BB68134382
:1015BC0043F0BF6343F40033BB60044ABB68D360A1
:1015CC0000BF1437BD4680BC704700BF00ED00E083
:1015DC0080B400AF044BDB681B0A03F0070318460A
:1015EC00BD4680BC704700BF00ED00E080B483B006
:1015FC0000AF0346FB7197F90730002B0BDBFB792F
:10160C0003F01F02064997F907305B09012000FA25
:10161C0002F241F8232000BF0C37BD4680BC704756
:10162C0000E100E080B483B000AF03463960FB7189
:10163C0097F90730002B0ADB3B68DAB20C4997F9B3
:10164C0007301201D2B20B4483F800230AE03B6846
:10165C00DAB20849FB7903F00F03043B1201D2B252
:10166C000B441A7600BF0C37BD4680BC704700BFD8
:10167C0000E100E000ED00E080B489B000AFF8605C
:10168C00B9607A60FB6803F00703FB61FB69C3F187
:10169C000703042B28BF0423BB61FB690433062B0F
:1016AC0002D9FB69033B00E000237B614FF0FF3262
:1016BC00BB6902FA03F3DA43BB681A407B699A40B0
:1016CC004FF0FF317B6901FA03F3D9437B680B4080
:1016DC00134318462437BD4680BC704780B582B092
:1016EC0000AF78607B68013BB3F1807F01D30123AD
:1016FC000FE00A4A7B68013B53600F214FF0FF302B
:10170C00FFF790FF054B00229A60044B07221A60EA
:10171C00002318460837BD4680BD00BF10E000E02E
:10172C0080B582B000AF78607868FFF72DFF00BFFE
:10173C000837BD4680BD80B586B000AF0346B960A2
:10174C007A60FB7300237B61FFF742FF78617A6854
:10175C00B9687869FFF790FF024697F90F30114688
:10176C001846FFF75FFF00BF1837BD4680BD80B538
:10177C0082B000AF0346FB7197F907301846FFF7AC
:10178C0035FF00BF0837BD4680BD80B582B000AFC5
:10179C0078607868FFF7A2FF034618460837BD4605
:1017AC0080BD80B485B000AF78600023FB737B688C
:1017BC0093F82130022B08D07B6804229A637B6853
:1017CC00002283F82020012320E07B681B681A6824
:1017DC007B681B6822F00E021A607B681B681A6813
:1017EC007B681B6822F001021A607B681A6C7B68AC
:1017FC00DB6B012101FA02F25A607B68012283F84B
:10180C0021207B68002283F82020FB7B18461437AC
:10181C00BD4680BC7047000080B584B000AF7860D6
:10182C000023FB737B6893F82130022B05D07B6877
:10183C0004229A630123FB7351E07B681B681A68CE
:10184C007B681B6822F00E021A607B681B681A68A2
:10185C007B681B6822F001021A607B681B68224AB5
:10186C00934229D07B681B68204A934222D07B6824
:10187C001B681F4A93421AD07B681B681D4A93420F
:10188C0012D07B681B681C4A93420AD07B681B6889
:10189C001A4A934202D14FF480130EE04FF080733A
:1018AC000BE04FF4803308E04FF4805305E04FF425
:1018BC00807302E0102300E00123114A53607B681F
:1018CC00012283F821207B68002283F820207B688A
:1018DC005B6B002B03D07B685B6B78689847FB7B5A
:1018EC0018461037BD4680BD080002401C0002405F
:1018FC003000024044000240580002406C0002409C
:10190C000000024080B48BB000AF786039600023D7
:10191C007B6200233B6269E101227B6A02FA03F3DA
:10192C00FB613B681B68FA691340BB61BA69FB69D0
:10193C009A4240F058813B685B689A4A93425ED069
:10194C00984A934275D8984A934258D0964A9342F3
:10195C006FD8964A934252D0944A934269D8944A8B
:10196C0093424CD0924A934263D8924A934246D0C7
:10197C00904A93425DD8122B2AD8122B59D801A227
:10198C0052F823F00B1A0008E5190008F7190008A3
:10199C00391A00083F1A00083F1A00083F1A0008BD
:1019AC003F1A00083F1A00083F1A00083F1A0008A7
:1019BC003F1A00083F1A00083F1A00083F1A000897
:1019CC003F1A00083F1A0008ED190008011A000818
:1019DC00794A934213D02CE03B68DB683B6229E0E8
:1019EC003B68DB6804333B6224E03B68DB6808330C
:1019FC003B621FE03B68DB680C333B621AE03B68E0
:101A0C009B68002B02D104233B6213E03B689B686C
:101A1C00012B05D108233B627B68FA691A6109E046
:101A2C0008233B627B68FA695A6103E000233B623E
:101A3C0000E000BFBB69FF2B01D87B6801E07B682D
:101A4C0004337B61BB69FF2B02D87B6A9B0002E0ED
:101A5C007B6A083B9B003B617B691A680F213B69E1
:101A6C0001FA03F3DB431A40396A3B6901FA03F3C9
:101A7C001A437B691A603B685B6803F08053002B48
:101A8C0000F0B1804D4B9B694C4A43F001039361CC
:101A9C004A4B9B6903F00103BB60BB68484A7B6AF5
:101AAC009B08023352F82330FB607B6A03F003037C
:101ABC009B000F2202FA03F3DB43FA681340FB602E
:101ACC007B68404A934213D07B683F4A93420DD0C7
:101ADC007B683E4A934207D07B683D4A934201D1D2
:101AEC00032306E0042304E0022302E0012300E0C8
:101AFC0000237A6A02F0030292009340FA681343BF
:101B0C00FB602F497B6A9B080233FA6841F823205B
:101B1C003B685B6803F48033002B06D02D4B1A68AE
:101B2C002C49BB6913430B6006E02A4B1A68BB694E
:101B3C00DB43284913400B603B685B6803F40033BC
:101B4C00002B06D0234B5A682249BB6913434B60C8
:101B5C0006E0204B5A68BB69DB431E4913404B60BF
:101B6C003B685B6803F48013002B06D0194B9A6812
:101B7C001849BB6913438B6006E0164B9A68BB6926
:101B8C00DB43144913408B603B685B6803F4001320
:101B9C00002B21D00F4BDA680E49BB691343CB6085
:101BAC0021E000BF000032100000311000002210B4
:101BBC000000211000001210000011100010024053
:101BCC000000014000080140000C014000100140E1
:101BDC0000140140000401400B4BDA68BB69DB4385
:101BEC0009491340CB607B6A01337B623B681A68FE
:101BFC007B6A22FA03F3002B7FF48EAE00BF00BF8A
:101C0C002C37BD4680BC70470004014080B485B0C1
:101C1C0000AF78600B467B807B689A687B881340AA
:101C2C00002B02D00123FB7301E00023FB73FB7B31
:101C3C0018461437BD4680BC704780B483B000AFE3
:101C4C0078600B467B8013467B707B78002B03D02F
:101C5C007A887B681A6103E07B881A047B681A61B6
:101C6C0000BF0C37BD4680BC7047000080B586B005
:101C7C0000AF78607B68002B01D101236CE27B689C
:101C8C001B6803F00103002B00F08780924B5B680C
:101C9C0003F00C03042B0CD08F4B5B6803F00C038C
:101CAC00082B12D18C4B5B6803F48033B3F5803F67
:101CBC000BD1894B1B6803F40033002B6CD07B6871
:101CCC005B68002B68D1012346E27B685B68B3F547
:101CDC00803F06D1804B1B687F4A43F480331360EE
:101CEC002EE07B685B68002B0CD17B4B1B687A4A1F
:101CFC0023F480331360784B1B68774A23F48023DA
:101D0C0013601DE07B685B68B3F5A02F0CD1724BA0
:101D1C001B68714A43F4802313606F4B1B686E4A37
:101D2C0043F4803313600BE06B4B1B686A4A23F45B
:101D3C0080331360684B1B68674A23F4802313605D
:101D4C007B685B68002B13D0FFF714FC386108E04C
:101D5C00FFF710FC02463B69D31A642B01D903230D
:101D6C00FAE15D4B1B6803F40033002BF0D014E058
:101D7C00FFF700FC386108E0FFF7FCFB02463B690B
:101D8C00D31A642B01D90323E6E1534B1B6803F4EC
:101D9C000033002BF0D100E000BF7B681B6803F020
:101DAC000203002B63D04C4B5B6803F00C03002B3D
:101DBC000BD0494B5B6803F00C03082B1CD1464B32
:101DCC005B6803F48033002B16D1434B1B6803F084
:101DDC000203002B05D07B681B69012B01D001236A
:101DEC00BAE13D4B1B6823F0F8027B685B69DB00B2
:101DFC00394913430B603AE07B681B69002B20D0F8
:101E0C00364B01221A60FFF7B5FB386108E0FFF78B
:101E1C00B1FB02463B69D31A022B01D903239BE188
:101E2C002D4B1B6803F00203002BF0D02A4B1B68D0
:101E3C0023F0F8027B685B69DB00274913430B60D6
:101E4C0015E0264B00221A60FFF794FB386108E07E
:101E5C00FFF790FB02463B69D31A022B01D90323EF
:101E6C007AE11D4B1B6803F00203002BF0D17B6859
:101E7C001B6803F00803002B3AD07B689B69002B8E
:101E8C0019D0174B01221A60FFF774FB386108E078
:101E9C00FFF770FB02463B69D31A022B01D90323CF
:101EAC005AE10D4B5B6A03F00203002BF0D00120CA
:101EBC0000F0D8FA1CE00A4B00221A60FFF75AFB1C
:101ECC0038610FE0FFF756FB02463B69D31A022B31
:101EDC0008D9032340E100BF001002400000424239
:101EEC00800442429E4B5B6A03F00203002BE9D153
:101EFC007B681B6803F00403002B00F0A680002312
:101F0C00FB75974BDB6903F08053002B0DD1944B81
:101F1C00DB69934A43F08053D361914BDB6903F047
:101F2C008053BB60BB680123FB758E4B1B6803F4AD
:101F3C008073002B18D18B4B1B688A4A43F4807337
:101F4C001360FFF717FB386108E0FFF713FB02463D
:101F5C003B69D31A642B01D90323FDE0814B1B6829
:101F6C0003F48073002BF0D07B68DB68012B06D167
:101F7C007B4B1B6A7A4A43F0010313622DE07B68AA
:101F8C00DB68002B0CD1764B1B6A754A23F00103DE
:101F9C001362734B1B6A724A23F0040313621CE036
:101FAC007B68DB68052B0CD16D4B1B6A6C4A43F0CC
:101FBC00040313626A4B1B6A694A43F00103136200
:101FCC000BE0674B1B6A664A23F001031362644BF8
:101FDC001B6A634A23F0040313627B68DB68002BE3
:101FEC0015D0FFF7C7FA38610AE0FFF7C3FA0246CB
:101FFC003B69D31A41F28832934201D90323ABE0F7
:10200C00574B1B6A03F00203002BEED014E0FFF7D2
:10201C00B1FA38610AE0FFF7ADFA02463B69D31A10
:10202C0041F28832934201D9032395E04C4B1B6A51
:10203C0003F00203002BEED1FB7D012B05D1484BA5
:10204C00DB69474A23F08053D3617B68DB69002B43
:10205C0000F08180424B5B6803F00C03082B61D0CD
:10206C007B68DB69022B46D13F4B00221A60FFF7DD
:10207C0081FA386108E0FFF77DFA02463B69D31A12
:10208C00022B01D9032367E0354B1B6803F0007367
:10209C00002BF0D17B681B6AB3F5803F08D1304B25
:1020AC005B6823F400327B689B682D4913434B60BB
:1020BC002B4B5B6823F474127B68196A7B685B6A30
:1020CC000B43274913434B60274B01221A60FFF740
:1020DC0051FA386108E0FFF74DFA02463B69D31A12
:1020EC00022B01D9032337E01D4B1B6803F000734F
:1020FC00002BF0D02FE01C4B00221A60FFF73AFAAD
:10210C00386108E0FFF736FA02463B69D31A022B16
:10211C0001D9032320E0124B1B6803F00073002B42
:10212C00F0D118E07B68DB69012B01D1012313E0AE
:10213C000B4B5B68FB60FB6803F480327B681B6AAB
:10214C009A4206D1FB6803F470127B685B6A9A4270
:10215C0001D0012300E0002318461837BD4680BD8E
:10216C0000100240007000406000424280B584B014
:10217C0000AF786039607B68002B01D10123D0E07F
:10218C006A4B1B6803F007033A689A4210D9674BF5
:10219C001B6823F0070265493B6813430B60634BD4
:1021AC001B6803F007033A689A4201D00123B8E098
:1021BC007B681B6803F00203002B20D07B681B6834
:1021CC0003F00403002B05D0594B5B68584A43F4C9
:1021DC00E06353607B681B6803F00803002B05D099
:1021EC00534B5B68524A43F460535360504B5B68EB
:1021FC0023F0F0027B689B684D4913434B607B686E
:10220C001B6803F00103002B40D07B685B68012B3B
:10221C0007D1474B1B6803F40033002B15D1012366
:10222C007FE07B685B68022B07D1414B1B6803F096
:10223C000073002B09D1012373E03D4B1B6803F0A5
:10224C000203002B01D101236BE0394B5B6823F0B7
:10225C0003027B685B68364913434B60FFF78AF9CE
:10226C00F8600AE0FFF786F90246FB68D31A41F2E0
:10227C008832934201D9032353E02D4B5B6803F062
:10228C000C027B685B689B009A42EBD1274B1B6866
:10229C0003F007033A689A4210D2244B1B6823F0D0
:1022AC00070222493B6813430B60204B1B6803F069
:1022BC0007033A689A4201D0012332E07B681B681D
:1022CC0003F00403002B08D0194B5B6823F4E06285
:1022DC007B68DB68164913434B607B681B6803F013
:1022EC000803002B09D0124B5B6823F460527B6807
:1022FC001B69DB000E4913434B6000F021F80246CA
:10230C000B4B5B681B0903F00F030A49CB5C22FAE9
:10231C0003F3094A1360094B1B681846FFF7E8F8EA
:10232C00002318461037BD4680BD00BF0020024078
:10233C0000100240D03B0008440000204C0000205C
:10234C0090B48AB000AF2A4B3C1D0FCB84E80F0031
:10235C0040F201233B800023FB610023BB6100237F
:10236C007B6200237B6100233B62224B5B68FB6139
:10237C00FB6903F00C03042B02D0082B03D02DE0D7
:10238C001D4B3B622DE0FB699B0C03F00F0307F127
:10239C002802134413F8243C7B61FB6903F480335B
:1023AC00002B13D0134B5B685B0C03F0010307F19C
:1023BC002802134413F8283CBB617B690E4A02FBCC
:1023CC0003F2BB69B2FBF3F37B6204E07B690B4A5B
:1023DC0002FB03F37B627B6A3B6202E0064B3B62CF
:1023EC0000BF3B6A18462837BD4690BC704700BFFB
:1023FC00C03B00080010024000127A0000093D00AA
:10240C0080B400AF024B1B681846BD4680BC7047B9
:10241C004400002080B500AFFFF7F2FF0246054BE9
:10242C005B681B0A03F007030349CB5C22FA03F336
:10243C00184680BD00100240E03B000880B500AF9C
:10244C00FFF7DEFF0246054B5B68DB0A03F0070370
:10245C000349CB5C22FA03F3184680BD00100240FE
:10246C00E03B000880B485B000AF78600A4B1B6875
:10247C000A4AA2FB03235B0A7A6802FB03F3FB60A4
:10248C0000BFFB685A1EFA60002BF9D100BF00BFD9
:10249C001437BD4680BC704744000020D34D6210F9
:1024AC0080B582B000AF78607B68002B01D101232E
:1024BC0041E07B6893F83D30DBB2002B06D17B68A2
:1024CC00002283F83C207868FEF732FE7B680222FB
:1024DC0083F83D207B681A687B68043319461046E4
:1024EC0000F020FC7B68012283F846207B680122E7
:1024FC0083F83E207B68012283F83F207B68012211
:10250C0083F840207B68012283F841207B680122FC
:10251C0083F842207B68012283F843207B680122E8
:10252C0083F844207B68012283F845207B680122D4
:10253C0083F83D20002318460837BD4680BD0000B7
:10254C0080B485B000AF78607B6893F83D30DBB227
:10255C00012B01D001233AE07B68022283F83D2055
:10256C007B681B68DA687B681B6842F00102DA60E2
:10257C007B681B68184A93420ED07B681B68B3F1CA
:10258C00804F09D07B681B68144A934204D07B6847
:10259C001B68134A934211D17B681B689B6803F03C
:1025AC000703FB60FB68062B10D07B681B681A685E
:1025BC007B681B6842F001021A6007E07B681B68AD
:1025CC001A687B681B6842F001021A6000231846E7
:1025DC001437BD4680BC7047002C014000040040FD
:1025EC000008004080B582B000AF78607B68002B9B
:1025FC0001D1012341E07B6893F83D30DBB2002B25
:10260C0006D17B68002283F83C207868FEF7B4FD85
:10261C007B68022283F83D207B681A687B68043350
:10262C001946104600F07EFB7B68012283F8462099
:10263C007B68012283F83E207B68012283F83F20CF
:10264C007B68012283F840207B68012283F84120BB
:10265C007B68012283F842207B68012283F84320A7
:10266C007B68012283F844207B68012283F8452093
:10267C007B68012283F83D20002318460837BD46AD
:10268C0080BD000080B584B000AF786039603B68D5
:10269C00002B09D17B6893F83E30DBB2012B14BFC1
:1026AC0001230023DBB222E03B68042B09D17B68B9
:1026BC0093F83F30DBB2012B14BF01230023DBB2B4
:1026CC0015E03B68082B09D17B6893F84030DBB2EE
:1026DC00012B14BF01230023DBB208E07B6893F8C5
:1026EC004130DBB2012B14BF01230023DBB2002BE2
:1026FC0001D001235EE03B68002B04D17B680222F1
:10270C0083F83E2013E03B68042B04D17B68022243
:10271C0083F83F200BE03B68082B04D17B68022236
:10272C0083F8402003E07B68022283F841207B6819
:10273C001B6801223968184600F074FD7B681B6821
:10274C001E4A934207D17B681B685A6C7B681B68D6
:10275C0042F400425A647B681B68184A93420ED0BC
:10276C007B681B68B3F1804F09D07B681B68144AE7
:10277C00934204D07B681B68124A934211D17B6848
:10278C001B689B6803F00703FB60FB68062B10D0EB
:10279C007B681B681A687B681B6842F001021A6030
:1027AC0007E07B681B681A687B681B6842F00102B3
:1027BC001A60002318461037BD4680BD002C01401E
:1027CC00000400400008004080B582B000AF786083
:1027DC007B681B681B6903F00203022B22D17B6808
:1027EC001B68DB6803F00203022B1BD17B681B68A0
:1027FC006FF002021A617B6801221A777B681B68F2
:10280C009B6903F00303002B03D0786800F06FFA88
:10281C0005E0786800F062FA786800F071FA7B687D
:10282C0000221A777B681B681B6903F00403042BD6
:10283C0022D17B681B68DB6803F00403042B1BD1DB
:10284C007B681B686FF004021A617B6802221A779E
:10285C007B681B689B6903F44073002B03D078687A
:10286C0000F045FA05E0786800F038FA786800F076
:10287C0047FA7B6800221A777B681B681B6903F098
:10288C000803082B22D17B681B68DB6803F0080364
:10289C00082B1BD17B681B686FF008021A617B68E0
:1028AC0004221A777B681B68DB6903F00303002B97
:1028BC0003D0786800F01BFA05E0786800F00EFA97
:1028CC00786800F01DFA7B6800221A777B681B6819
:1028DC001B6903F01003102B22D17B681B68DB688B
:1028EC0003F01003102B1BD17B681B686FF01002D8
:1028FC001A617B6808221A777B681B68DB6903F412
:10290C004073002B03D0786800F0F1F905E078688B
:10291C0000F0E4F9786800F0F3F97B6800221A778C
:10292C007B681B681B6903F00103012B0ED17B68CC
:10293C001B68DB6803F00103012B07D17B681B6864
:10294C006FF001021A617868FEF736FA7B681B6833
:10295C001B6903F08003802B0ED17B681B68DB683E
:10296C0003F08003802B07D17B681B686FF080021B
:10297C001A61786800F0E1FC7B681B681B6903F046
:10298C004003402B0ED17B681B68DB6803F04003CF
:10299C00402B07D17B681B686FF040021A61786886
:1029AC0000F0B7F97B681B681B6903F02003202B30
:1029BC000ED17B681B68DB6803F02003202B07D14A
:1029CC007B681B686FF020021A61786800F0ACFC21
:1029DC0000BF0837BD4680BD80B584B000AFF8603D
:1029EC00B9607A60FB6893F83C30012B01D102236B
:1029FC00ACE0FB68012283F83C207B680C2B00F2D6
:102A0C009F8001A252F823F0492A00084D2B0008A0
:102A1C004D2B00084D2B0008892A00084D2B00086F
:102A2C004D2B00084D2B0008CB2A00084D2B00081D
:102A3C004D2B00084D2B00080B2B0008FB681B6866
:102A4C00B968184600F0D0F9FB681B689A69FB68F6
:102A5C001B6842F008029A61FB681B689A69FB6864
:102A6C001B6822F004029A61FB681B689969BB68B9
:102A7C001A69FB681B680A439A6162E0FB681B6871
:102A8C00B968184600F016FAFB681B689A69FB686F
:102A9C001B6842F400629A61FB681B689A69FB68C8
:102AAC001B6822F480629A61FB681B689969BB6899
:102ABC001B691A02FB681B680A439A6141E0FB68B8
:102ACC001B68B968184600F05FFAFB681B68DA6986
:102ADC00FB681B6842F00802DA61FB681B68DA6964
:102AEC00FB681B6822F00402DA61FB681B68D96979
:102AFC00BB681A69FB681B680A43DA6121E0FB6852
:102B0C001B68B968184600F0A9FAFB681B68DA69FB
:102B1C00FB681B6842F40062DA61FB681B68DA69C7
:102B2C00FB681B6822F48062DA61FB681B68D96958
:102B3C00BB681B691A02FB681B680A43DA6100E078
:102B4C0000BFFB68002283F83C2000231846103796
:102B5C00BD4680BD80B584B000AF786039607B68BD
:102B6C0093F83C30012B01D10223B3E07B680122A6
:102B7C0083F83C207B68022283F83D207B681B682D
:102B8C009B68FB60FB6823F07703FB60FB6823F416
:102B9C007F43FB607B681B68FA689A603B681B6824
:102BAC00B3F5005F3ED0B3F5005F00F28780B3F55C
:102BBC00805F00F08580B3F5805F7FD8702B1AD0D2
:102BCC00702B7BD8602B50D0602B77D8502B3CD0FF
:102BDC00502B73D8402B58D0402B6FD8302B64D04F
:102BEC00302B6BD8202B60D0202B67D8002B5CD0DF
:102BFC00102B5AD062E07B6818683B6899683B6878
:102C0C005A683B68DB6800F0EEFA7B681B689B68CF
:102C1C00FB60FB6843F07703FB607B681B68FA681A
:102C2C009A604EE07B6818683B6899683B685A6804
:102C3C003B68DB6800F0D7FA7B681B689A687B6896
:102C4C001B6842F480429A603BE07B6818683B68E2
:102C5C0059683B68DB681A4600F04EFA7B681B68C3
:102C6C005021184600F0A5FA2BE07B6818683B68E9
:102C7C0059683B68DB681A4600F06CFA7B681B6885
:102C8C006021184600F095FA1BE07B6818683B68D9
:102C9C0059683B68DB681A4600F02EFA7B681B68A3
:102CAC004021184600F085FA0BE07B681A683B68F7
:102CBC001B681946104600F07CFA02E000BF00E0E9
:102CCC0000BF7B68012283F83D207B68002283F8DB
:102CDC003C20002318461037BD4680BD80B483B01D
:102CEC0000AF786000BF0C37BD4680BC704780B425
:102CFC0083B000AF786000BF0C37BD4680BC704716
:102D0C0080B483B000AF786000BF0C37BD4680BC88
:102D1C00704780B483B000AF786000BF0C37BD46FD
:102D2C0080BC704780B485B000AF786039607B6838
:102D3C001B68FB607B68294A93420BD07B68B3F11C
:102D4C00804F07D07B68264A934203D07B68254A84
:102D5C00934208D1FB6823F07003FB603B685B680F
:102D6C00FA681343FB607B681C4A93420BD07B6868
:102D7C00B3F1804F07D07B68194A934203D07B682C
:102D8C00184A934208D1FB6823F44073FB603B68FC
:102D9C00DB68FA681343FB60FB6823F080023B6836
:102DAC005B691343FB607B68FA681A603B689A683E
:102DBC007B68DA623B681A687B689A627B68074AB0
:102DCC00934203D13B681A697B681A637B680122C2
:102DDC005A6100BF1437BD4680BC7047002C0140BF
:102DEC00000400400008004080B487B000AF786059
:102DFC0039607B681B6A23F001027B681A627B686E
:102E0C001B6A7B617B685B683B617B689B69FB60D1
:102E1C00FB6823F07003FB60FB6823F00303FB608B
:102E2C003B681B68FA681343FB607B6923F0020361
:102E3C007B613B689B687A6913437B617B681C4AA6
:102E4C0093420CD17B6923F008037B613B68DB6800
:102E5C007A6913437B617B6923F004037B617B6894
:102E6C00134A934211D13B6923F480733B613B6954
:102E7C0023F400733B613B685B693A6913433B6124
:102E8C003B689B693A6913433B617B683A695A60BA
:102E9C007B68FA689A613B685A687B685A637B68FE
:102EAC007A691A6200BF1C37BD4680BC704700BFF0
:102EBC00002C014080B487B000AF786039607B682B
:102ECC001B6A23F010027B681A627B681B6A7B61A9
:102EDC007B685B683B617B689B69FB60FB6823F4E8
:102EEC00E043FB60FB6823F44073FB603B681B68AA
:102EFC001B02FA681343FB607B6923F020037B61A0
:102F0C003B689B681B017A6913437B617B681D4A94
:102F1C0093420DD17B6923F080037B613B68DB68B6
:102F2C001B017A6913437B617B6923F040037B614E
:102F3C007B68144A934213D13B6923F480633B6151
:102F4C003B6923F400633B613B685B699B003A6916
:102F5C0013433B613B689B699B003A6913433B619C
:102F6C007B683A695A607B68FA689A613B685A6870
:102F7C007B689A637B687A691A6200BF1C37BD460E
:102F8C0080BC7047002C014080B487B000AF7860E3
:102F9C0039607B681B6A23F480727B681A627B68D9
:102FAC001B6A7B617B685B683B617B68DB69FB60F0
:102FBC00FB6823F07003FB60FB6823F00303FB60EA
:102FCC003B681B68FA681343FB607B6923F400734E
:102FDC007B613B689B681B027A6913437B617B684E
:102FEC001D4A93420DD17B6923F400637B613B68DE
:102FFC00DB681B027A6913437B617B6923F4806372
:10300C007B617B68144A934213D13B6923F4805350
:10301C003B613B6923F400533B613B685B691B01DB
:10302C003A6913433B613B689B691B013A69134343
:10303C003B617B683A695A607B68FA68DA613B6885
:10304C005A687B68DA637B687A691A6200BF1C373E
:10305C00BD4680BC704700BF002C014080B487B0D7
:10306C0000AF786039607B681B6A23F480527B6800
:10307C001A627B681B6A3B617B685B687B617B685F
:10308C00DB69FB60FB6823F4E043FB60FB6823F423
:10309C004073FB603B681B681B02FA681343FB60C0
:1030AC003B6923F400533B613B689B681B033A6903
:1030BC0013433B617B680F4A934209D17B6923F42C
:1030CC0080437B613B685B699B017A6913437B613D
:1030DC007B687A695A607B68FA68DA613B685A687F
:1030EC007B681A647B683A691A6200BF1C37BD465C
:1030FC0080BC7047002C014080B487B000AFF860F2
:10310C00B9607A60FB681B6A7B61FB681B6A23F001
:10311C000102FB681A62FB689B693B613B6923F007
:10312C00F0033B617B681B013A6913433B617B698C
:10313C0023F00A037B617A69BB6813437B61FB68EC
:10314C003A699A61FB687A691A6200BF1C37BD46FE
:10315C0080BC704780B487B000AFF860B9607A600B
:10316C00FB681B6A23F01002FB681A62FB689B6900
:10317C007B61FB681B6A3B617B6923F470437B6159
:10318C007B681B037A6913437B613B6923F0A003C3
:10319C003B61BB681B013A6913433B61FB687A696D
:1031AC009A61FB683A691A6200BF1C37BD4680BC45
:1031BC00704780B485B000AF786039607B689B68DD
:1031CC00FB60FB6823F07003FB603A68FB681343F9
:1031DC0043F00703FB607B68FA689A6000BF143702
:1031EC00BD4680BC704780B487B000AFF860B96052
:1031FC007A603B60FB689B687B617B6923F47F434F
:10320C007B613B681A027B681A43BB6813437A697B
:10321C0013437B61FB687A699A6000BF1C37BD461B
:10322C0080BC704780B487B000AFF860B9607A603A
:10323C00BB6803F01F03012202FA03F37B61FB68F6
:10324C001A6A7B69DB431A40FB681A62FB681A6ACC
:10325C00BB6803F01F03796801FA03F31A43FB6898
:10326C001A6200BF1C37BD4680BC704780B485B065
:10327C0000AF786039607B6893F83C30012B01D14A
:10328C00022346E07B68012283F83C207B68022203
:10329C0083F83D207B681B685B68FB607B681B6860
:1032AC009B68BB60FB6823F07003FB603B681B688A
:1032BC00FA681343FB607B681B68FA685A607B688A
:1032CC001B68164A93420ED07B681B68B3F1804F83
:1032DC0009D07B681B68124A934204D07B681B6838
:1032EC00104A93420CD1BB6823F08003BB603B684F
:1032FC005B68BA681343BB607B681B68BA689A60EA
:10330C007B68012283F83D207B68002283F83C20F7
:10331C00002318461437BD4680BC7047002C014072
:10332C00000400400008004080B483B000AF786017
:10333C0000BF0C37BD4680BC704780B483B000AF73
:10334C00786000BF0C37BD4680BC704780B582B03A
:10335C0000AF78607B68002B01D101233FE07B68D4
:10336C0093F83D30DBB2002B06D17B68002283F84A
:10337C003C207868FDF750FF7B68242283F83D20C1
:10338C007B681B68DA687B681B6822F40052DA6081
:10339C00786800F049FB7B681B681A697B681B68BE
:1033AC0022F490421A617B681B685A697B681B681F
:1033BC0022F02A025A617B681B68DA687B681B68FA
:1033CC0042F40052DA607B6800221A647B68202287
:1033DC0083F83D207B68202283F83E20002318468A
:1033EC000837BD4680BD000080B58AB000AF78605C
:1033FC007B681B681B687B627B681B68DB683B62B5
:10340C007B681B685B69FB610023BB6100237B61EC
:10341C007B6A03F00F03BB61BB69002B0DD17B6A88
:10342C0003F02003002B08D03B6A03F02003002B91
:10343C0003D0786800F04FFA7BE1BB69002B00F0F9
:10344C00B180FB6903F00103002B05D13B6A03F447
:10345C009073002B00F0A6807B6A03F00103002B15
:10346C000AD03B6A03F48073002B05D07B681B6C7D
:10347C0043F001027B681A647B6A03F00403002B9F
:10348C000AD0FB6903F00103002B05D07B681B6C91
:10349C0043F002027B681A647B6A03F00203002B80
:1034AC000AD0FB6903F00103002B05D07B681B6C71
:1034BC0043F004027B681A647B6A03F00803002B58
:1034CC000FD03B6A03F02003002B04D1FB6903F0FF
:1034DC000103002B05D07B681B6C43F008027B6852
:1034EC001A647B681B6C002B00F01E817B6A03F056
:1034FC002003002B07D03B6A03F02003002B02D0E3
:10350C00786800F0E8F97B681B685B6903F040039E
:10351C00002B14BF01230023DBB27B617B681B6C87
:10352C0003F00803002B02D17B69002B31D07868A3
:10353C0000F02AF97B681B685B6903F04003002BE1
:10354C0023D07B681B685A697B681B6822F0400299
:10355C005A617B689B6B002B13D07B689B6B764A04
:10356C005A637B689B6B1846FEF756F90346002B93
:10357C0016D07B689B6B5B6B7A68926B1046984796
:10358C000EE0786800F0ECF80AE0786800F0E8F8F3
:10359C0006E0786800F0E4F87B6800221A64C3E067
:1035AC0000BFC1E07B681B6B012B40F0A1807B6AE4
:1035BC0003F01003002B00F09B803B6A03F0100318
:1035CC00002B00F095800023FB607B681B681B6858
:1035DC00FB607B681B685B68FB60FB687B681B6837
:1035EC005B6903F04003002B4ED07B689B6B1B6820
:1035FC005B683B823B8A002B00F098807B689B8D3C
:10360C003A8A9A4280F092807B683A8ADA857B68A3
:10361C009B6B9B69202B2BD07B681B68DA687B68C3
:10362C001B6822F48072DA607B681B685A697B68BD
:10363C001B6822F001025A617B681B685A697B681F
:10364C001B6822F040025A617B68202283F83E20DE
:10365C007B6800221A637B681B68DA687B681B68CE
:10366C0022F01002DA607B689B6B1846FEF799F823
:10367C007B689A8D7B68DB8D9BB2D31A9BB2194603
:10368C00786800F076F851E07B689A8D7B68DB8D6A
:10369C009BB2D31A7B827B68DB8D9BB2002B47D00D
:1036AC007B8A002B44D07B681B68DA687B681B68BC
:1036BC0022F49072DA607B681B685A697B681B681D
:1036CC0022F001025A617B68202283F83E207B683D
:1036DC0000221A637B681B68DA687B681B6822F01F
:1036EC001002DA607B8A1946786800F042F81FE015
:1036FC007B6A03F08003002B08D03B6A03F0800345
:10370C00002B03D0786800F07FF812E07B6A03F09E
:10371C004003002B0DD03B6A03F04003002B08D074
:10372C00786800F0C0F804E000BF02E000BF00E0E1
:10373C0000BF2837BD4680BDED37000880B483B08C
:10374C0000AF786000BF0C37BD4680BC704780B4BA
:10375C0083B000AF786000BF0C37BD4680BC7047AB
:10376C0080B483B000AF786000BF0C37BD4680BC1E
:10377C00704780B483B000AF78600B467B8000BF8D
:10378C000C37BD4680BC704780B483B000AF786006
:10379C007B681B68DA687B681B6822F49072DA60BD
:1037AC007B681B685A697B681B6822F001025A61AE
:1037BC007B681B6B012B07D17B681B68DA687B6805
:1037CC001B6822F01002DA607B68202283F83E200E
:1037DC007B6800221A6300BF0C37BD4680BC704763
:1037EC0080B584B000AF78607B685B6AFB60FB6877
:1037FC000022DA85FB680022DA84F868FFF7B0FF54
:10380C0000BF1037BD4680BD80B485B000AF786076
:10381C007B6893F83D30DBB2212B3ED17B689B68F3
:10382C00B3F5805F14D17B681B69002B10D17B68CA
:10383C001B6AFB60FB681B881A467B681B68C2F31B
:10384C0008025A607B681B6A9A1C7B681A6208E043
:10385C007B681B6A591C7A6811621A787B681B6832
:10386C005A607B68DB8C9BB2013B9BB27A68194631
:10387C00D184002B0FD17B681B68DA687B681B68CE
:10388C0022F08002DA607B681B68DA687B681B6850
:10389C0042F04002DA60002300E00223184614379D
:1038AC00BD4680BC704780B582B000AF78607B6845
:1038BC001B68DA687B681B6822F04002DA607B6860
:1038CC00202283F83D207868FFF738FF0023184644
:1038DC000837BD4680BD80B586B000AF78607B6888
:1038EC0093F83E30DBB2222B40F099807B689B68CA
:1038FC00B3F5805F17D17B681B69002B13D10023B4
:10390C007B617B689B6A3B617B681B685B689BB2D5
:10391C00C3F308039AB23B691A807B689B6A9A1CB2
:10392C007B689A6226E07B689B6A7B6100233B6123
:10393C007B689B68B3F5805F07D07B689B68002B26
:10394C000AD17B681B69002B06D17B681B685B68FE
:10395C00DAB27B691A7008E07B681B685B68DBB2C3
:10396C0003F07F03DAB27B691A707B689B6A5A1C7E
:10397C007B689A627B68DB8D9BB2013B9BB27A6859
:10398C001946D185002B48D17B681B68DA687B68A7
:10399C001B6822F02002DA607B681B68DA687B689F
:1039AC001B6822F48072DA607B681B685A697B683A
:1039BC001B6822F001025A617B68202283F83E20AA
:1039CC007B681B6B012B23D17B6800221A637B68FD
:1039DC001B68DA687B681B6822F01002DA607B686F
:1039EC001B681B6803F01003102B0AD10023FB602B
:1039FC007B681B681B68FB607B681B685B68FB60F3
:103A0C00FB687B689B8D19467868FFF7B2FE02E075
:103A1C007868FFF79CFE002302E0002300E00223FD
:103A2C0018461837BD4680BD80B584B000AF7860AD
:103A3C007B681B681B6923F440517B68DA687B68E0
:103A4C001B680A431A617B689A687B681B691A4376
:103A5C007B685B691343BB607B681B68DB6823F482
:103A6C00B05323F00C037A681268B9680B43D36027
:103A7C007B681B685B6923F440717B689A697B687F
:103A8C001B680A435A617B681B682C4A934203D11A
:103A9C00FEF7D4FCF86002E0FEF7BCFCF860FA68B4
:103AAC0013469B0013449A001A447B685B689B0086
:103ABC00B2FBF3F3224AA2FB03235B091901FA6858
:103ACC0013469B0013449A001A447B685B689B0066
:103ADC00B2FBF3F21A4BA3FB02035B09642000FB5D
:103AEC0003F3D31A1B013233154AA2FB03235B09E0
:103AFC0003F0F0031944FA6813469B0013449A0030
:103B0C001A447B685B689B00B2FBF3F20C4BA3FB83
:103B1C0002035B09642000FB03F3D31A1B0132334D
:103B2C00074AA2FB03235B0903F00F027B681B68A7
:103B3C000A449A6000BF1037BD4680BD0038014072
:103B4C001F85EB5170B500260C4D0D4C641BA41059
:103B5C00A64209D100F022F800260A4D0A4C641B3B
:103B6C00A410A64205D170BD55F8043B9847013608
:103B7C00EEE755F8043B98470136F2E7E83B0008BE
:103B8C00E83B0008E83B0008EC3B00080346024415
:103B9C00934200D1704703F8011BF9E7F8B500BF59
:103BAC00F8BC08BC9E467047F8B500BFF8BC08BC12
:043BBC009E4670476A
:103BC00002030405060708090A0B0C0D0E0F10105E
:103BD00000000000000000000102030406070809BD
:083BE0000000000001020304D3
:043BE800310100089F
:043BEC000D010008BF
:103BF00001000000010000000100000001000000C1
:103C000001000000010000000100000001000000B0
:103C100001000000010000000100000001000000A0
:103C20000100000001000000010000000100000090
:103C3000010000000024F4000A0000001000000051
:043C4000010000007F
:040000050800148556
:00000001FF
